:020000040800F2
:1000000090480020ED010008BD4A00088D3F00081F
:10001000B94A0008FD110008F95E00080000000060
:10002000000000000000000000000000A3560008CF
:100030002920000800000000A1560008C157000850
:10004000070200080702000807020008070200086C
:10005000070200080702000807020008070200085C
:10006000070200080702000807020008070200084C
:10007000070200080702000807020008070200083C
:100080000702000800000000DD0E0008070200085B
:1000900007020008E1220008070200080702000822
:1000A000070200080702000807020008070200080C
:1000B00007020008070200080702000807020008FC
:1000C00007020008070200080702000807020008EC
:1000D0000702000807020008215C00080702000868
:1000E00007020008070200080702000807020008CC
:1000F00007020008070200080702000800000000CD
:1001000000000000070200080000000007020008CD
:1001100007020008000000000702000807020008AC
:10012000070200080702000807020008070200088B
:10013000070200080000000000000000070200089D
:10014000070200080702000800000000000000008D
:10015000000000000000000000000000000000009F
:10016000000000000000000000000000070200087E
:10017000070200080000000000000000000000006E
:10018000000000000702000800000000000000005E
:10019000000000000000000000000000000000005F
:1001A000000000000000000007020008070200082D
:1001B000070200080702000807020008000000000C
:1001C000000000000702000800000000000000001E
:1001D0000702000807020008DFF80CD000F0BCFAA4
:1001E00000480047F56B000890480020064880470B
:1001F00006480047FEE7FEE7FEE7FEE7FEE7FEE70C
:10020000FEE7FEE7FEE7FEE701590008D901000816
:1002100040EA01039B0703D009E008C9121F08C088
:10022000042AFAD203E011F8013B00F8013B521E08
:10023000F9D27047D2B201E000F8012B491EFBD27F
:1002400070470022F6E710B513460A4604461946E1
:10025000FFF7F0FF204610BD30B5044600200346EE
:1002600000E05B1C934203D2E05CCD5C401BF8D005
:1002700030BD70B5064605F041FE046805460A2209
:100280000021304600F0AEF82C6070BD70B5C1F3AF
:100290000A5201F000450024C1F3130140F2FF337C
:1002A00041F480119A4201DA002070BD40F23343DC
:1002B0009A42A2F2334203DC524200F035F800E0E9
:1002C00090402C43F1D0404270BD00F0004230F02D
:1002D00000400AD0C10D01F56071C0F3160042EA7A
:1002E0000151C20840071143704700200146704782
:1002F00001F0004330B421F0004150EA010206D081
:100300000A0DA2F56072C1F31301002A02DC30BCB1
:1003100000207047440F44EAC104C100E01830BC1B
:1003200000EBC25000F096B8202A04DB203A21FAF4
:1003300002F00021704721FA02F3D040C2F12002FE
:1003400091400843194670470FB4002300B589B0A7
:100350000CA900910B996FF00042CB601E4B0693E5
:100360001E4B07930423CDE901321D4A0892024631
:100370006B46002000F0B2FA09B05DF814FB70B5CE
:1003800086B006464FF0FF300091CDE90101002014
:1003900015460C4604903246694604A8FFF7D4FF80
:1003A00003460498211825B108B10A4600E0224608
:1003B0002A6000280DD0002B02DD0098884208D06A
:1003C000081B0094CDE901043246694604A8FFF7F2
:1003D000BBFF06B070BD0000150B0008330B000812
:1003E000C90700082DE9F04791460F4680460446AC
:1003F000002614F8015B2DB100F0E2F90068405DC1
:10040000C007F6D12B2D02D02D2D18D0641E4A46E0
:100410003946204600F09EFB27B13968A14201D140
:10042000C7F8008071054FF002040BD54042002848
:1004300003DD05F063FD0460A007BDE8F08746F426
:100440008066E4E70028F8DA05F058FD04606FF0F4
:100450000040F2E70029A8BF7047401C490008BFD0
:1004600020F00100704710B4B0FA80FC00FA0CF0E4
:1004700050EA010404BF10BC704749B1CCF120041C
:1004800021FA04F411FA0CF118BF012121430843A9
:10049000A3EB0C01CB1D4FEA00614FEA102042BFD5
:1004A000002010BC704700EBC35010440029A4BFCB
:1004B00010BC7047401C490008BF20F0010010BC70
:1004C00070472DE9FE4F804681EA0300C00F0C46BD
:1004D000009021F0004123F00045B8EB0200A94153
:1004E00005D24046214690461C460B46024623F064
:1004F0000040104347D0270DC7F30A00C3F30A5149
:100500000290401A019040286BDAC3F3130040F4C4
:10051000801B0098924620B10023D2EB030A63EBC4
:100520000B0B01985946C0F14002504600F026F9E5
:1005300006460D4650465946019A00F02EF910EB3A
:1005400008006141002487EA115284EAE7731A43E4
:1005500040D0009A62B3019A012A4FEA075215DC93
:10056000001B61EB02014FF0004202EA0752CDE9A5
:100570000042001C41F5801132462B4600F048FB3A
:1005800003B0BDE8F08F40462146F9E7001B61EB60
:100590000201001C41F5801300185B412018A2F5F0
:1005A000001747EB030140EAD570B6196D4111E021
:1005B0006D084FEA360645EAC0754FEA0752001B40
:1005C00061EB0201001C41F5801149084FEA30003F
:1005D0000019514132462B4603B0BDE8F04F00F000
:1005E00008BB0098012240000023D0EB020263EB1D
:1005F000E073009821464FEAE074B8EB000061EB2D
:100600000401E9E783F000435BE781F0004158E72C
:100610002DE9F041054621F000400C46284309D061
:10062000C4F30A5040F23341884205DD2846214692
:10063000BDE8F0812846FBE740F2FE31884210DC3D
:100640000CDB4FEA043040EA155050EA053105D082
:10065000104804F0004101430020E9E70020014672
:10066000E6E7A0F233404642C6F140022846214662
:1006700000F084F807468846284621463246FFF7B0
:1006800053FE43463A4600F0B4FA3246BDE8F04124
:1006900000F074B80000F03F30B5041E71F10004A2
:1006A00004DB4FF00044404264EB0101141E73F17F
:1006B000000405DB1C464FF00043524263EB040389
:1006C0008B4208BF824230BD30B5041E71F1000478
:1006D00004DB4FF00044404264EB0101141E73F14F
:1006E000000405DB1C464FF00043524263EB040359
:1006F000994208BF904230BD70B5044601F00045F4
:100700000020054304D14FF00045644265EB010130
:1007100003F00045284305D118464FF000435242EC
:1007200063EB0003101B73EB010002D24FF000409B
:1007300009E082EA040283EA01034FF000501A4301
:1007400001D14FF0C0404FEA2062EFF3008162F325
:100750001F6181F3008870BD064C074D06E0E0681C
:1007600040F0010394E8070098471034AC42F6D3F8
:10077000FFF736FD3C8C00085C8C0008202A04DB67
:10078000203A00FA02F1002070479140C2F12003A4
:1007900020FA03F3194390407047202A06DBCB1759
:1007A000203A41FA02F043EAE07306E041FA02F32C
:1007B000D040C2F120029140084319467047000022
:1007C000004870473484000810B50446FFF7F8FF6E
:1007D0000068005D00F0010010BD00002DE9FF4F32
:1007E000087881B09946FF2805D0491C2D2804D0EF
:1007F0000024002308E000230BE00124F9E703EBC9
:10080000830300EB4303491C0878FF28F7D104B1A8
:100810005B4200200090147801462D2C01D02B2C37
:1008200004D1521C2D2C12D00024009400251678DF
:10083000FF2E0ED00A24A0FB04C801FB0481002770
:1008400000FB0711521C16EB0C006941EFE7012475
:10085000EBE7994450EA01020ED00024AA4D264647
:10086000DFF8A88200F011FB82468B46B9F1000048
:1008700009DAC9F100071BE001980021C0E9001165
:1008800005B0BDE8F08F074612E0F80707D0224612
:100890002B463046414600F017FA06468846224667
:1008A0002B461046194600F00FFA04460D467F10FD
:1008B000002FEAD1B9F1000F32464346504659465F
:1008C00002DA00F073FA01E000F0FEF9009A0AB1D2
:1008D00081F00041019AC2E90001D1E72DE9FF4F03
:1008E0001F468DB0D7E901464FF0FF382E20454610
:1008F0004FF000090B90B9696D1C0E988847396A52
:10090000824688470028F6D1BAF1FF3F0AD024F486
:10091000D064002E11DDBAF12B0F08D0BAF12D0FE3
:100920000BD102E0404611B0ABE744F48064B969F2
:100930006D1C0E9888478246761E6946600501D573
:100940002D2000E02B208DF8000001F1010B0DF1AE
:10095000200809E0B9696D1C0E98884782460F98F7
:1009600044F40074761E0560002E02DDBAF1300FEB
:10097000F0D00B998A453ED144F0800406E00F99EF
:10098000681CA9F1010944F400740860B9696D1C80
:10099000761E0E98884782463028F0D02BE00B99BF
:1009A0008A4505D1200603D444F08004761E18E061
:1009B000504605F0ABFB08B30DF11301761E44F46D
:1009C00000748B4508D2AAF130000BF8010B200609
:1009D00007D5A9F1010003E0200602D409F10100C6
:1009E0008146A00502D50F99681C0860B9696D1C85
:1009F0000E9888478246002ED1DC53E0002E51DD50
:100A0000BAF1650F02D0BAF1450F4BD1A00549D517
:100A1000B9696D1C24F44074761E0E98884782468E
:100A2000002E0CDD2B2804D0BAF12D0F07D144F491
:100A30008074B9696D1C0E9888478246761EE00561
:100A400001D52D2100E02B2108F8011BCDF82C80C9
:100A500021E00DF12901761E44F4007488450CD282
:100A6000AAF1300010F0FF0088F8000002D10B99C5
:100A7000884509D908F1010806E0E00501D52448B8
:100A800001E042F20F708146B9696D1C0E988847EB
:100A900082460F980560002E04DD504605F036FBB7
:100AA0000028D6D1F9690E988847FF208BF80000FE
:100AB00088F800000020069007904B466A4608A977
:100AC00006A8FFF78BFEA00502D46FF001002AE70D
:100AD00014F0240F0AD0E00714D1DDE906123868BB
:100AE000031D3B600068C0E900120BE0DDE9060170
:100AF000FFF7FEFB0146E00704D13868021D3A60AB
:100B00000068016028460EE7000024400000F03F26
:100B1000F1D8FFFF426842B1016811F8013B23B1EF
:100B2000521EC0E90012184670470121C160881E9C
:100B3000704742685AB1C368016843B983688B4201
:100B400005D0491E521CC0E90012002070474FF02A
:100B5000FF3070472DE9F05F824600780027154688
:100B60008B460AF10104B946302801D09DB113E04B
:100B700014F8010B0127782803D0582801D045B17B
:100B80000AE00DB1102D07D10027102514F8010B34
:100B900002E0082500E00A250026B0460EE005FB2D
:100BA000080005FB06F1012701EB10461FFA80F84B
:100BB000B6F5803F00D3B94614F8010B294600F082
:100BC00075F80028EBDABBF1000F05D00FB1641EF9
:100BD00000E05446CBF80040B9F1000F06D005F014
:100BE0008DF902210160C81EBDE8F09F48EA064069
:100BF000FAE710B5141E73F1000408DA401C41F145
:100C0000000192185B411A4301D120F0010010BD90
:100C10002DE9F04D92469B4611B1B1FA81F202E006
:100C2000B0FA80F220329046FFF7A8FD04460F4646
:100C300040EA0A0041EA0B0153465A46084313D0E2
:100C4000114653EA010019D0C8F140025046FFF79F
:100C50006BFB05460E46504659464246FFF78EFD51
:100C6000084305D0012004E020463946BDE8F08D58
:100C70000020054346EAE0762C4337430A98630593
:100C8000E40AA0EB08000022FD0A44EA47540A30B7
:100C900002D500200146E9E7010510196941DDE9A7
:100CA000084500196941BDE8F04DA2E73A2800D295
:100CB000303820F02002412A01D3A2F137008842C7
:100CC00001D34FF0FF3070472DE9FE4F81EA030456
:100CD00004F0004421F0004100944FF0000B23F099
:100CE000004350EA01045ED052EA03045BD0C3F330
:100CF0000A54C1F30A552C44A4F2F3340194A0FB26
:100D00000254C1F3130141F48011C3F3130343F4FC
:100D1000801301FB024400FB034E840A970A44EA55
:100D2000815447EA8357A4FB076802958D0A05FBA7
:100D300007854FEA932C04FB0C542705029D4FEACC
:100D4000065847EA1637B5EB08056EEB070C870E19
:100D5000920E47EA811742EA8312A7FB0201B6EB23
:100D60000B0164EB00042B0D43EA0C335E1844EBDB
:100D70001C50DA465146E7FB0201C5F313044FEA63
:100D80000B3343EA14534FEA0432019C43EA06034F
:100D9000A4F10C040294009CCDE900B4FFF738FFE5
:100DA00003B0BDE8F08F00200146F9E72DE9F04DD2
:100DB00081EA030404F0004B21F0004514464FF093
:100DC000000A23F0004150EA050220D054EA010253
:100DD0001DD0C5F30A570246C5F31303C1F3130030
:100DE000C1F30A5640F4801543F48013A7EB0608BC
:100DF000101BD64608F2FD3873EB050002D308F14C
:100E0000010801E092185B41B8F1000F03DA0020FD
:100E10000146BDE8F08D00204FF48011064684465F
:100E20000EE0171B73EB050705D3121B63EB0503DD
:100E300006434CEA010C49084FEA300092185B4126
:100E400050EA0107EDD152EA030012D082EA040011
:100E500083EA0501084305D0101BAB4106D20122ED
:100E6000002306E000224FF0004302E06FF0010291
:100E700053101AEB06004CEB085110EB0A0041EB43
:100E80000B01BDE8F04DFFF7B4BE0EB540F23342A2
:100E900002920022CDE900221346FFF7B9FE03B00B
:100EA00000BD30B58C1810F8012B12F00F0301D1E2
:100EB00010F8013B120906D110F8012B03E010F8DD
:100EC000015B01F8015B5B1EF9D101E001F8013B18
:100ED000521EFBD1A142E6D3002030BD10B5294CF3
:100EE000A06820F03F0020F0004040F00400A06027
:100EF0009FED250A01F024F9206C254A81B2234890
:100F00004FF0A04481801268224B92B202801B688D
:100F1000DFED210A9BB24380D0F82CC0ACEB02027B
:100F200000EE102AB8EEC00A20EE200A80ED030A77
:100F3000026BB1EE400AD21A01EE102AB8EEC11AC5
:100F400061EE200A9FED161AC0ED040A30EE600A29
:100F5000DFED120A80ED050A90ED020A60EE200A2C
:100F600000EE101AB8EE400A20EE010A9FED0D1AAD
:100F700040EE010AC0ED020A01F08CFF4020206023
:100F800010BD000000010050ACC52738EC03002064
:100F90008000005080010050500AA53C6666663F04
:100FA000CDCCCC3D7BDC7A3C10B504F0F7FE024999
:100FB0000020487010BD0000F4000020F0B5814D05
:100FC00004462DED028B81B06878002802BF01B085
:100FD000BDEC028BF0BDA86804F0BCFB05282BD348
:100FE00004F0BEFBA8606A7800267748012A27D063
:100FF0009FED768A7649774F022A4ED0032A7DD01C
:10100000042A19D10020D7F800305202F6EE000A67
:1010100003EB8001401C91ED000A521E20EE200AD5
:1010200081ED000AF4D14FF400606860012028705F
:101030001B2001F043FE6E7001B0BDEC028BF0BDD1
:1010400090ED040A6449FDEEC00AF8EEE00A30EEC5
:10105000600A10EE100ADFED610A8842C4BF94ED09
:10106000000A30EE600A09DC10EE100A5C49884282
:1010700084BF94ED000A30EE200A05D984ED000A01
:1010800001B0BDEC028BF0BDD4ED000A022030EEC1
:10109000C00A84ED000A6E604BE094ED000AD0EDCA
:1010A000040A30EE600AD1ED4B0AB0EEC00AB4EE8D
:1010B000E00AF1EE10FA22BF01B0BDEC028BF0BDE8
:1010C00090ED070AD1ED4C0AB0EEC00AB4EEE00A8A
:1010D000F1EE10FAD4D200F07FFC38686A6800EBB9
:1010E000820080ED000A10EE100A8DF80000010A5F
:1010F0008DF80110010C8DF8021000E01BE0000ECD
:101100008DF803006946104601F03CF994ED000AA1
:1011100030EE080A84ED000A6868401C6860B0F58B
:10112000006FADDB401E30EE480A6860032084ED9E
:10113000000A6870A4E794ED000AD0ED040A30EECE
:10114000600AD1ED4B0AB0EEC00AB4EEE00AF1EE4F
:1011500010FA95D290ED070AD1ED4C0AB0EEC00A14
:10116000B4EEE00AF1EE10FA8AD200F035FC3868ED
:101170006A6800EB8200D0ED000A30EE200A80EDB4
:10118000000A10EE100A8DF80000010A8DF8011017
:10119000010C8DF80210000E8DF8030042F2107061
:1011A0006946104401F0EEF894ED000A30EE480A6A
:1011B00084ED000A6868401E686044BF04206870BF
:1011C0005EE70000F4000020280300200000003A41
:1011D0002C010020000000206F12833A6F12833A26
:1011E0006F1283BA10B5044C0020207004F0D6FDB5
:1011F0000120607010BD0000F400002001F06CB808
:1012000070B5094C00252570606802F0C7FD656067
:1012100004F016FD054C002802BF0120207070BDAF
:1012200004F0BCFD257070BDC0000020F40000205B
:101230002DE9F04FFA4A2DED028B85B0916800EE52
:10124000101AB8EE400ADFEDF70A127820EE208A75
:10125000112A80F08283DFE802F0FD091750748FB5
:10126000BFFCFBFAF9F8F7F6F5F4F300EC4C0020BC
:101270009FEDED0AA06004F1240080ED000A01F06A
:10128000BBFB022000F0B1BAE849D0ED050AE84AFC
:1012900091ED480A30EE600AD2ED000A9FEDE51AA2
:1012A00040EE010AC2ED000A91ED490AF4EEC00ACF
:1012B000F1EE10FA06DCB1EE400AF4EEC00AF1EEEF
:1012C00010FA07D201F0AAFCD54801214170102183
:1012D00000F0FFB890ED020ADFEDD71A9FEDD21AA9
:1012E00004F01CFFCE4CD549A068814200F2358342
:1012F00001F094FC032000F078BACD4890ED000A8C
:10130000CA48D0ED480A80EE201A9FEDCD0A21EEA2
:10131000000A80ED010A10EE100A8DF80800010A9B
:101320008DF80910010C8DF80A10000E8DF80B00D5
:1013300002A9012001F050F8B9490420087000F01A
:101340000CBBB74C0020A0602061B84890ED490A62
:1013500004F12400F1EE400AC0ED000A80ED010A1C
:101360009FEDB10A083080ED000A80ED010A01F01E
:1013700043FB052000F039BAA94C0329C0F0ED82E7
:101380000021A160217C04F12C0201F0010102EB9B
:101390008102D0ED050A92ED000A30EE200A82EDBE
:1013A000000A04F1240202EB810190ED020AD1ED62
:1013B000000ADFEDA11A9FED9C1A04F0AFFE206930
:1013C00042F21071401C20618842C0F2C68201F0D6
:1013D00025FC062000F009BA9A4890ED000AD0EDED
:1013E000010A70EE600A9FED981A904C80EE810A17
:1013F00094ED491AC1EE000A9FED910A20EE800A91
:1014000010EE100A84ED020A8DF80C00010A8DF826
:101410000D10010C8DF80E10000E8DF80F0003A9B1
:10142000022000F0D9FFD4ED020AD4ED011A94EDA8
:101430005E0A81EEA01AB8EEC00A20EE200A0AE089
:101440006BE2D4E16AE105E1C9E0AFE062E043E0CC
:101450001FE00BE03CE261EE000A714984ED5C0A9A
:10146000C4ED5D0A0720087000F077BA6C4C0020CC
:10147000A0606E4890ED480AD0ED010A04F1240006
:1014800020EE200A80ED000A01F0B6FA082000F0F4
:10149000ACB96749F6EE000A91ED000A20EE080AA1
:1014A00060EE200A90ED020A9FED5F1AF0EE411AFD
:1014B00004F034FE18EE100AB0F1804FC0F24D82F5
:1014C0006248002190ED040A554880ED070A8160CA
:1014D0000921017000F041BAB2EE040A544968EEE5
:1014E000001A90ED020AD1ED000A9FED4F1A04F0A8
:1014F00015FE18EE100A56498842C0F22E82534853
:10150000474C90ED040A84ED080A01F087FB0A209D
:1015100000F06BB9424DB0EE001AD5ED088A95ED9A
:10152000078A38EEC80AF0EEC00A81EE200A10EEF3
:10153000100AFEF7CAFE41EC100B04F03DFD51EC21
:10154000100BFEF7A3FE394C1428206003DD0220A7
:101550006870102027E0F4EEC88AF1EE10FACCBFD4
:101560000021012161618DF80000010A8DF8011050
:10157000010C8DF80210000E8DF80300694603205F
:1015800000F02AFF60698DF80000010A8DF8011053
:10159000010C8DF80210000E8DF80300694604203E
:1015A00000F01AFF0B20287000F0D7B91C4C002067
:1015B0009FED1D0A206184ED050A84ED060AA060F6
:1015C0001A4890ED480AD0ED010A04F1240020EEFB
:1015D000200A80ED000A01F00FFA0C2005E1144901
:1015E000F6EE000AA1F1240491ED000AD4ED061AEA
:1015F0009FED0D1A20EE080A60EE200A90ED020A17
:1016000004F08CFD18EE100AB0F1804FC0F2A581F5
:101610000020A0600D480088E0600D20E5E000009B
:10162000C0000020ACC52738000000002C010020BD
:10163000E400002017B75139920A8640F8240100CF
:10164000ABAA2A3FEC000020CCCC4C3E2803002063
:101650007CD9A03FC74C94ED060ADFEDC70A5FEDC9
:101660000E8A04F1240170EE201AB0EE681AC4ED5F
:10167000061AD1ED000A90ED020A04F04FFD94ED38
:10168000050AB4EEC08AF1EE10FA2EDDD4ED060A9A
:101690009FEDBA1ABA4920EE811AD1ED000AF8EE90
:1016A000E00ADFEDB81AB84A636860EEA10A128852
:1016B000C1EE201AFDEEE10A10EE900A101AC20FD8
:1016C000C2EB82320244206943F82020DFEDAF0AEA
:1016D0004FF0FF3230EE200A84ED050A096802EB74
:1016E000C1118842DCBF401C2061A54890ED000A72
:1016F000B8EEC00ADFEDA30AB2EE041A60EE200ACB
:1017000080EE810AB4EEC80AF1EE10FA00F22581EB
:10171000C4ED058A0020A0600E2066E0954C94ED93
:10172000060ADFED950A04F1240170EE601AC4ED9B
:10173000061AD1ED000A90ED020A1FED451A04F0D9
:10174000EDFCD4ED050AB4EEE08AF1EE10FAC4BF68
:10175000206900282CDD94ED060A9FED881A88493F
:1017600020EE011A91ED000AB8EEC00ADFED851AED
:10177000854A20EE210A1288C1EE001ABDEEE10A68
:1017800010EE101A511ACA0FC2EB8232114462686D
:1017900052F82030194401EBD171491042F8201061
:1017A000401E9FED7A0A206130EE800A84ED050A22
:1017B000734890ED000AB8EEC00ADFED720AB2EE8F
:1017C000041A60EE200A80EE810AB4EEC80AF1EE37
:1017D00010FA7DD86C48E1680088084400EBD070AE
:1017E0004010E06001F01AFA0F202070B5E0644E5E
:1017F0004FF0FF3B0020D6F800C00BEBCC13002BC2
:101800000DDD5C48002559104068D0E9004705D03F
:101810003C44F0E902271544491EF9D16019002B18
:1018200004DB5449496851F8231008444FEACC11AD
:1018300090FBF1F0B0618DF80400010A8DF80510FD
:10184000010C8DF80610000E8DF8070001A9052087
:1018500000F0C2FD474843F6FF72C168C90191FB21
:10186000F2FAC0F80CA0D0F804800023D6F800C02B
:1018700000210CFB03F08024C001C5170A4600EBD1
:1018800055650BEBCC17CCF1000900BF02EBE5105E
:10189000403848BF00EBCC1003D48742B8BF00EB00
:1018A000C91058F82000521C0144641EEED1C8171C
:1018B00001EB5060C1110AEB03007F28C8BF8038DC
:1018C000328B06EB4000891A5B1C8183802B00E081
:1018D00043E0CBDB5FF0000406EB4400B0F91C00F2
:1018E0008DF80400010A8DF80510010C8DF8061022
:1018F000000E8DF8070001A904F10A0000F06CFD4C
:101900000A2003F0CFFE641C802CE5DB0120C6F822
:101910001C011B2001F0D2F91FE0164C60788DF8F5
:101920001000010A8DF81110010C8DF81210000E34
:101930008DF8130004A94FF0FF3000F04DFD002595
:101940002570606802F02AFA656004F079F968B1E0
:1019500004F024FA0E480570257006488168491C79
:10196000816005B0BDEC028BBDE8F08F0849012015
:101970000870F1E7C000002017B7D13900FC7F469E
:101980002C010020DB0FC940280300207CD9A03B9C
:10199000F400002070B50C4D0024286820B10B49DC
:1019A0000C7002F0FBF92C60094D686820B94FF407
:1019B000205002F03BFA686006484461C0F81C41C0
:1019C0000120287070BD000000000020F4000020FD
:1019D000C00000202C010020014890ED060A70474D
:1019E0007C0000200748D0F83411042906BFD0F845
:1019F0003801022870470448044980ED000A01209C
:101A0000087070472C010020200400207C0000207A
:101A100019499FED1A0A1B4AD1ED040A0121C0EDB4
:101A2000000A80ED010A80ED020A1548C0ED010AA6
:101A300080ED020A80ED030A1175134980ED060A54
:101A400041F66A02D1F844119142BABF00EE101A71
:101A5000B8EEC00A9FED0D0AF0EE000A20EE200A53
:101A6000F5EE000A80ED050A20EE000A20EE200ABD
:101A700080ED040A704700002803002000000000E9
:101A80007C0000202C0400202C0100200050C345C5
:101A90002DE9F041DFF8F082BC4CBA4D0F462DED38
:101AA000028B294698ED013A94ED021AD5F83401DB
:101AB00098ED000A73EE411AD8ED022A91ED032A3F
:101AC000DFEDB38A9FEDB38AD4ED010A05285CD21D
:101AD000DFE800F0030A315C730084ED010A84ED55
:101AE000023AC4ED032AAAE095ED4F0AD4ED031A99
:101AF00020EE280A72EEE10AB0EEC01AB1EE410AF9
:101B0000F4EEC00AF1EE10FACCBFB0EE602AB0EEEF
:101B1000402AB4EEC12AF1EE10FAC8BFB0EE410A75
:101B200006DCF4EEC00AF1EE10FAC8BFB0EE600AAF
:101B300031EE800A27E095ED500A20EE280AF0EEFB
:101B4000C00AB1EE600AF4EEC01AF1EE10FACCBF92
:101B5000F0EE612AF0EE402AF4EEE02AF1EE10FAFF
:101B6000C8BFF0EE601A06DCF4EEC01AF1EE10FA0F
:101B7000D8BFF0EE401A31EE210A84ED020A81EE60
:101B8000A80A20EE020A84ED030A58E030EE600A4B
:101B9000D4ED042A22EE800AD4ED052A02EEA10A31
:101BA00000EE281A62EE001AC4ED031A84ED021A40
:101BB00041EE280AC4ED010A41E02078764E68B172
:101BC000D5ED542A95ED532AD5ED521A03F014FFA2
:101BD00086ED048A00203075207001E0307D70BBF6
:101BE00096ED040AD6ED030AB4EEE00AF1EE10FA1F
:101BF0000DDD0220C5F8380198ED000A012084EDC2
:101C0000010A84ED028A84ED038A307517E003F03F
:101C100085FE96ED000A84ED010A96ED010A84ED39
:101C2000020A96ED020AD5ED030A20EE200A84EDA1
:101C3000030A96ED040A30EE280A86ED040AD5F868
:101C4000381194ED020A5548F7EE001A022917DB05
:101C5000D0ED040A94ED011AD5F8542171EE600A12
:101C600095ED571A01EE200AF0EEE00A42B195ED2B
:101C7000561AB4EEE01AF1EE10FA01DBC0EE811A4A
:101C800095ED5A1AF1EE410AF4EEC00AF1EE10FA9F
:101C900034BFB0EE402AB0EE602AB4EEC21AF1EEC4
:101CA00010FA38BFB0EE410A06D3F4EEC00AF1EEE6
:101CB00010FA28BFB0EE600A94ED031AF0EE480A5D
:101CC00001290DDBD0ED070A70EE600A95ED580A88
:101CD00020EE210A00EE201A94ED060A31EE001AD9
:101CE00095ED042AD5F8282181EE020A8AB12C4A02
:101CF000127872B1406843F6FF72C0EBC02090FBCF
:101D0000F2F0284A126802EB800090ED001A31EEE2
:101D1000000A95ED5B1A0020B4EEC01AF1EE10FA3D
:101D20003CBF0120B0EE410AB1EE411AB4EEC01A38
:101D3000F1EE10FAC4BF0120B0EE410A0129B8BF8C
:101D400084ED068A15DB40B1D4ED060A9FED161A24
:101D500060EE810AC4ED060A0BE095ED591A21EEFA
:101D6000211A61EE281A94ED061A01EEA01A84EDEC
:101D7000061A002F18BF87ED000ABDEC028BBDE8E4
:101D8000F08100002C010020200400207C000020B5
:101D9000ACC52738000000002C04002028030020D8
:101DA000F400002000000020A4707D3F00B54FF437
:101DB000805000F037F840F004014FF480505DF897
:101DC00004EB00F0EBB800B54FF4805000F02AF8B7
:101DD00020F004014FF480505DF804EB00F0DEB811
:101DE00070B5002000F01EF804460A2003F08AFCBB
:101DF0004FF4006000F016F805460A2003F082FC5C
:101E0000C4F30A00C5F30A0101EAC02070BD000056
:101E10000348006810F0100F14BF00200120704725
:101E20001008004838B440F400434BF6EF604FF020
:101E3000904C1020CCF828000020ADF800001C4881
:101E40006C46816842F2107211F0020F08BF012146
:101E500007D102E0491C914203D8856815F0020FB2
:101E6000F8D0C360816811F0800F18BF012106D03F
:101E7000836813F0800F02D0491C9142F8D9816821
:101E800011F0010F08BF012107D102E0491C914266
:101E900003D8836813F0010FF8D0C06820801020A9
:101EA000CCF81800BDF8000038BCC0F30A00704739
:101EB000003001402DE9F0414FF090440820A0622D
:101EC000022003F0EFFB142003F01CFC0820A061AB
:101ED000022003F0E7FB1C214FF4405000F05EF8B5
:101EE000642003F00FFC25214FF4805000F056F8D9
:101EF000642003F007FC40F2DE3421464FF4C0506A
:101F000000F04CF8642003F0FDFB40F2CE7529464A
:101F10004FF4005000F042F8642003F0F3FB40F26D
:101F2000C32631464FF4405000F038F8642003F0E7
:101F3000E9FB40F27F1739464FF4205000F02EF8AD
:101F4000642003F0DFFB4FF48050FFF76BFF242881
:101F500017D14FF4C050FFF765FFA04211D14FF4E5
:101F60000050FFF75FFFA8420BD14FF44050FFF73E
:101F700059FFB04205D14FF42050FFF753FFB8424C
:101F800003D04FF0FF30BDE8F081034800F06EFE53
:101F90000020BDE8F0810000EC03002038B4C1F35C
:101FA0000A0141EA00054BF6EF604FF09044102023
:101FB000A0620020ADF800001A48EC46816842F2A9
:101FC000107311F0020F08BF012107D102E0491C74
:101FD000994203D8826812F0020FF8D0C560816878
:101FE00011F0800F18BF012106D0826812F0800F17
:101FF00002D0491C9942F8D9816811F0010F08BF3D
:10200000012107D102E0491C994203D8826812F0ED
:10201000010FF8D0C068ACF800001020A06138BCF7
:102020007047000000300140704700002DE9F0418A
:1020300092B000240794089409940A943B480694AB
:102040000C940D940E940F940B94029403940494A6
:102050000594816D41F400418165816D01F4004179
:102060001091C16C41F00201C164C16C01F0020128
:102070001091C16C41F00801C164C06C042100F0F2
:10208000080010902A4881610127CDE900176946B0
:1020900002F0B6F9082000900225CDE90154062689
:1020A000DFF89080CDE9044669464046039402F08B
:1020B000A7F910200090CDE90154CDE90446694606
:1020C0004046039402F09CF920200090CDE9015491
:1020D000CDE9044669464046039402F091F94FF475
:1020E0008270CDE906404FF47060CDE90805280202
:1020F000CDE90A702820CDE90C040720CDE90E4077
:102100000D4D06A9284602F01FFA686820F010005D
:102110006860686820F008006860286840F0400047
:1021200028600648C46012B0BDE8F081001002408B
:10213000000C004800040048003C00402803002038
:1021400070B5604D604C28462DED028BB0EE408A94
:10215000D5F81C11406943F6FF7651B318B102F06F
:102160002FFC301A01E002F02BFC208080B201220B
:1021700002EBD012C10902F07F0205EB410105EB31
:102180004202B1F91C10B2F91C2020F07F03C31ADF
:10219000521A5A4301EBE211401AB0F5804FA4BF26
:1021A000A0F57C50FF3802DA0028B8BF30446060E8
:1021B00009E018B102F004FC301A01E002F000FC62
:1021C000208080B26060A168411AB1F5005FA4BFB1
:1021D000E168491E05DA11F5005FDCBFE168491CC2
:1021E00000DCE16000EE100AA060DFED391AF8EEC5
:1021F000C00A9FED360A80EE801AD4ED030AF8EE8D
:10220000E00A31EE202A84ED042AA969401A00EE82
:10221000900AB8EEE01AD5ED000AF8EEE00A21EED9
:10222000201AC1EE000ABDEEE00AB8EEC00A30EE98
:10223000C00A60EE210AC4ED060AF5EEC00AF1EE0E
:1022400010FA3CBF30EEA10A84ED060A94ED050AAF
:1022500084ED052A1C4A32EE400A02F1C00104F165
:10226000BC0080EE081A94ED2F0A82ED300A13228A
:1022700030EE010A50ED010A41ED010A30EE800A0C
:1022800050ED020A083841ED020A51ED020A083900
:10229000521E30EE800AEDD184ED091A9FED0D1A21
:1022A000C0EE010AC4ED070A95ED000A60EEA10A2E
:1022B000B8EEC00A20EE800A84ED080ABDEC028B5D
:1022C00070BD00002C0100202803002000FC7F4688
:1022D000DB0FC9400000204272B600F09FFCFEE711
:1022E0000D480068016D426D01F00701114008BF03
:1022F000704710B501654021074800F0AFFF002886
:1023000008BF10BD00F0B6F84021034800F0A6FF5A
:102310000028F7D110BD0000C4020020184810B5F5
:1023200016490160002141608160C16001744174FF
:1023300081742222426101220323C0E90623026242
:1023400042628262C262C0E90C218163C16301F012
:1023500025F800281CBF4FF0FF3010BD084801F0E1
:1023600085F901221146064800F062FF0022012192
:10237000034800F067FE002010BD0000006400402C
:10238000C402002000B5134A83B092F888218DF86A
:10239000000002F00F0242F09003020A8DF80120C3
:1023A000020C8DF80220000E8DF8030008788DF8DD
:1023B000040048788DF8050088788DF80600C87804
:1023C0008DF8070008226946184603F021FF03B084
:1023D00000BD00002C01002000B5134A83B092F824
:1023E00088218DF8000002F00F0242F06003020A1B
:1023F0008DF80120020C8DF80220000E8DF80300EC
:1024000008788DF8040048788DF8050088788DF8F4
:102410000600C8788DF8070008226946184603F0C0
:10242000F7FE03B000BD00002C01002008B50C49E8
:10243000042291F888118DF8000001F00F0141F09D
:102440002003010A8DF80110010C8DF80210000E16
:102450008DF803006946184603F0DAFE08BD000057
:102460002C01002010B503F07BF90149086010BD74
:1024700010000020F0B58DB06B4602AA4021D8486C
:1024800000F0F6FED74C029ED74D370906F00F003C
:102490002661C4E90570D5F8881181421EBF002865
:1024A0000DB0F0BDD5F88C0110B103F059F92060E2
:1024B000192F24BF0DB0F0BDDFE807F08F0D2D2FD1
:1024C00044652D8F7A2D8FA4AEB9C4CFE3FDFCFBFC
:1024D000FAF9F8F7F6006D2000F0F0FB8DF8000037
:1024E000010A8DF80110010C8DF80210000E8DF814
:1024F0000300BE48082200698DF80400010A8DF827
:102500000510010C8DF80610000E8DF807006946C5
:10251000304603F07DFE0DB0F0BD7A2000F0CEFB1A
:102520008DF80000010A8DF80110010C8DF80210E1
:10253000000E8DF8030004226946304603F068FE61
:102540000DB0F0BD00F0B4FB8DF80000010A8DF86D
:102550000110010C8DF80210000E8DF8030000F040
:10256000A1FB8DF80400010A8DF80510010C8DF80F
:102570000610000E8DF8070008226946304603F069
:1025800047FE0DB0F0BD632000F098FB8DF8000011
:10259000010A8DF80110010C8DF80210000E8DF863
:1025A000030004226946304603F032FE0DB0F0BD50
:1025B000612000F083FB8DF80000010A8DF8011006
:1025C000010C8DF80210000E8DF8030004226946FC
:1025D000304603F01DFE0DB0F0BD1B2000F06EFB79
:1025E0008DF80000010A8DF80110010C8DF8021021
:1025F000000E8DF8030004226946304603F008FE01
:102600000DB0F0BDD5F89001002804BF0DB0F0BDAD
:1026100005F07AF80DB0F0BD9DED000A84ED010AD9
:10262000D5F8900100281CBF0DB0F0BDF0E79DED7E
:10263000000A84ED020AD5F8900100281CBF0DB0F5
:10264000F0BDE5E79DED000A84ED030AD5F89001A1
:1026500000281CBF0DB0F0BDDAE764480422006911
:102660008DF80000010A8DF80110010C8DF80210A0
:10267000000E8DF803006946304603F0C9FD0DB029
:10268000F0BD5A480422C0698DF80000010A8DF897
:102690000110010C8DF80210000E8DF80300694640
:1026A000304603F0B5FD07E081E06CE065E05EE0F8
:1026B0004AE036E022E001E00DB0F0BD4C48D5ED37
:1026C000040A042290ED070A694620EE200A10EE63
:1026D000100A8DF8000010EE100A000A8DF80100B3
:1026E00010EE100A000C8DF8020010EE100A000E19
:1026F0008DF80300304603F08BFDD4E73C480422FC
:10270000C0698DF80000010A8DF80110010C8DF8E8
:102710000210000E8DF803006946304603F078FD84
:10272000C1E73348042280688DF80000010A8DF863
:102730000110010C8DF80210000E8DF8030069469F
:10274000304603F065FDAEE729480422006A8DF8A3
:102750000000010A8DF80110010C8DF80210000E26
:102760008DF803006946304603F052FD9BE70122D5
:102770006946304603F066FD95E70022694630461B
:1027800003F060FD8FE7752000F098FA8DF80000E7
:10279000010A8DF80110010C8DF80210000E8DF861
:1027A000030004226946304603F032FD7BE7002037
:1027B0008DF800008DF801008DF802008DF80300FF
:1027C00002208DF8040000218DF805108DF8061008
:1027D0008DF8071008226946304603F019FD62E7BC
:1027E000C4020020100000202C010020280300203B
:1027F000EC03002010B50A4CD4F88C01002808BF67
:1028000010BD0848006802F0A5FFD4F88C1188427A
:1028100098BF10BD1B20BDE8104000F04FBA00006B
:102820002C010020100000202DE9F05F0D46044629
:1028300004F0B2F9002818BFBDE8F09F494B1968B1
:1028400011F4007F196810D021F400711960196823
:1028500011F4806F08BF4FF0010C12D0196821F4F9
:10286000806119604FF0030C0BE011F4806F08BF1A
:102870004FF0000C05D0196821F4806119604FF009
:10288000020C6619A64246D9374D4FF0FF3A4CF27A
:10289000FA376FF001084FF0010B4FF0000958694B
:1028A000E1B220F4FC7040EAC1005861586940F080
:1028B00002005861586940F480305861186910F47A
:1028C000803F1CBF012128460ED009E0491C8142EF
:1028D00006D95046596921F4FD715961D8B917E0FC
:1028E0001A6912F4803FF1D11869384008D00021EC
:1028F00009B199699961002818BF18614046E9E754
:10290000186910F0010F18BFC3F810B04846E1E78E
:10291000641CA642C3D8BCF1010F18BFBCF1030F61
:102920000BD1196841F400611960196821F4006144
:102930001960196841F400711960BCF1020F1CBFE5
:10294000BCF1030FBDE8F09F196841F48051196094
:10295000196821F480511960196841F48061196087
:10296000BDE8F09F0020024040420F0006494FF0B2
:10297000FF304A6942F000424A61496911F0004F54
:1029800018BF002070470000002002402DE9F041F0
:1029900016461F46054604F0FFF8002818BFBDE89C
:1029A000F081084C606940F0010060612E60BFF367
:1029B0006F8F6F6004F0F0F8616921F001016161CF
:1029C000BDE8F08100200240084900204A6912F069
:1029D000004F08BF7047064A8A60064A8A60496904
:1029E00011F0004F18BF4FF0FF3070470020024039
:1029F00023016745AB89EFCD10B5EFF3108472B6B4
:102A000002F02CFEFFF7DFF902490120087084F381
:102A1000108810BD2E00002030B504462DED088B27
:102A2000F0EE609AB0EE40AA83B0B0EE619AD0EDBD
:102A3000040A90ED050A90ED038A30EEC00ADFED3E
:102A40006D0AB0EE41BA60EE208AB0EE4B0A04F097
:102A500057F9F0EE401AB0EE4B0AF0EE61AA04F01E
:102A600091F968EE2A0A28EEAA1A48EE800A08EEC2
:102A7000401A94ED060ADFED601A20EE212A9FED40
:102A80005F0A5F4D3AEE60AA00EE802A79EEC19AA5
:102A900084ED062A94ED072A62EE211A41EE001A0F
:102AA000C4ED071A95ED5C0A94ED091AD4ED0A0AF3
:102AB00000EE0A1A40EE290A94ED020ADFED511ADF
:102AC000B7EE002A60EE211A82EE210A60EE018A3A
:102AD00020EE208A68EEA80A48EE080AB1EEE00A65
:102AE000B4EE400AF1EE10FA1CBFB0EE600A03F03B
:102AF000D3FA9FED451AC1EE000A10EE900AB0F12C
:102B00007E5F12DA68EEA08A28EE208AD4ED090AE8
:102B10009FED3E0A60EE800AC4ED090AD4ED0A0A70
:102B200020EE800A84ED0A0A15E095ED5D1A9FED0E
:102B3000380AD4ED090A21EE001A4AEE010AC4ED62
:102B4000090A95ED5D1AD4ED0A0A21EE000A49EE54
:102B5000800AC4ED0A0A94ED060AD4ED070AF0EEE5
:102B6000499A20EE280A08EE200A84ED080AB0EE01
:102B7000690A04F0C5F8B0EE409AB0EE690A04F0B4
:102B800001F928EE891AF0EE400A02AA01A908EE1E
:102B9000601A68EEA00A684648EE090AB0EE410ADB
:102BA00004F0DAFCDDED000A9FED1A0A1A4960EE26
:102BB000800AFCEEE00A10EE900A80B20860DDEDBB
:102BC000010A091F60EE800AFCEEE00A10EE900A8E
:102BD00080B20860DDED020A091F20EE800ABCEE1B
:102BE000C00A10EE100A80B2086003B0BDEC088B7A
:102BF00030BD00003ACD133F3333733FCDCC4C3D55
:102C00002C010020ABAA2A3FAC5C313FA4707D3F71
:102C1000ACC52738008054453C2C014010B5EFF37B
:102C2000108472B6FFF7C2F802F004FD02490020DA
:102C3000087084F3108810BD2E000020094A40F26D
:102C4000A4611160121F1160121F11609FED060A2E
:102C500080ED060A80ED070A80ED090A80ED0A0A78
:102C6000704700003C2C0140000000002DE9F041BD
:102C70000026044635464FF47A77B046642002F0C9
:102C800041FD208808F1010806446088B8450544E4
:102C9000F4DB96FBF7F0E06295FBF7F02063BDE80C
:102CA000F0810000014800687047000030000020FB
:102CB00001480078704700003800002070B50025FA
:102CC0006C4902462C461B280AD06B480E78D0E986
:102CD0004D3C062E47D2DFE806F05708505757AF55
:102CE0000120487020468C7070BD6348634E6D2A89
:102CF000D0F81C010ED006DC612A18D0632A10D04F
:102D0000652A35D040E0732A2ED0752A1BD07A2A46
:102D100020D039E032687ABB70B3022048708C70E2
:102D20009DE0306840BB032048708C7097E03268AB
:102D300012BB08B3002B08BFBCF1020F24D1042042
:102D400048708C708BE002F0F7FF044602F0B8FF89
:102D5000051984E0FFF7AEF8EFF3108072B6346027
:102D6000746080F310887AE0052048708C7076E0FB
:102D7000062048708C7072E006E04148712A06D047
:102D8000772A29D06D2A6AD04FF0FF3567E03C4999
:102D90009FED3C0A052BD1ED020AD1ED011A30EE70
:102DA000801AF6EE000A71EEA00AD1ED001A31EE9B
:102DB000800A54D2DFE803F0033235380D00BCF14D
:102DC000000F2BD0BCF1010F2BD0BCF1020F2BD088
:102DD00045E09FED2D0A2CE029499FED2A0A052B9D
:102DE000D1ED020AD1ED011A30EEC01AF6EE000A5A
:102DF00071EEE00AD1ED001A31EEC00A2FD2DFE801
:102E000003F0030D10131600BCF1000F06D0BCF147
:102E1000010F06D0BCF1020F06D020E080ED021AAF
:102E20001DE0C0ED010A1AE080ED000A17E09FEDF9
:102E3000170AFEF7D7FD12E00D2A12D00D48082A16
:102E400090F8430010D0124BC25491F84300401C3C
:102E5000C0B281F84300402828BF81F8434028468B
:102E600070BD03F0CFFFFAE700281CBF401E81F8B9
:102E70004300F4E7380000202C010020300000203F
:102E8000200400200AD7233C0000C84200000000B4
:102E90003B0000202DE9F843584D012600276978B2
:102EA0002878814240D0072816D2DFE800F00413CA
:102EB000070A0F131300FFF7D5FA0BE0FFF7AEFE7A
:102EC00008E0FFF7ABFEFEF79BF903E0FFF7A6FE75
:102ED000FEF76AF8AE7001E0A87828B36878287029
:102EE000062821D2DFE800F02020030C0F1A444806
:102EF000FEF78EFD4348FFF7A1FEFFF77DFD13E0CF
:102F0000FEF748FD10E03E48FEF782FD3D48FFF722
:102F100095FEFFF771FDFEF765F905E085F8437052
:102F20004021E81CFDF78DF92878DFF8DC80374C6C
:102F300005282ED2DFE800F05F2D07030700314897
:102F4000FEF776F925E069462D48FEF7A1FDDFF88A
:102F5000C090DFED300A2B4899ED061A99ED080A6A
:102F6000F0EE411A40EE201ADDED000A9FED2A0A2C
:102F7000FFF752FD99ED070AD8ED610AB0EEC00ADD
:102F8000B4EEE00AF1EE10FA03DD206840F0805064
:102F900020601C48D8ED600A90ED020AB4EEE00A09
:102FA000F1EE10FA03DB206840F080402060D8ED9D
:102FB0005F0AB4EEE00AF1EE10FA03D8206840F0A0
:102FC00000502060FEF724FF20B1FEF709FF2168C2
:102FD00008432060206818B1FFF720FE6E70AF70C4
:102FE00020686168884208BFBDE8F8832068FFF761
:102FF0001DFA20686060BDE8F883000038000020FA
:1030000020040020EC0300202C01002030000020D0
:103010002803002082A87B380000000070B5044619
:1030200000F05AFC0546B4F1FF3F02D00448406866
:10303000044400F051FC401BA042FAD370BD0000D4
:103040001C01002010B490F85C30012B18BF022B3B
:1030500006D0016E41F00201016610BC01207047EC
:10306000D0F800C0DCF8583011F0070F02D013F090
:10307000010F23D011F0380F02D013F0020F1DD032
:1030800011F4E07F02D013F0040F17D011F4F05FB9
:1030900002D013F0080F11D011F4604F02D013F0DA
:1030A000100F0BD011F4403F02D013F0200F05D0C9
:1030B00011F47C0F08D013F0400F05D1DCF85C4010
:1030C00044F00104CCF85C4011F0070F18BF13F076
:1030D000010F22D00368D3F85CC04CF0020CC3F897
:1030E0005CC000BF11F0800F06D00368D3F8DCC0CD
:1030F0004CEA020CC3F8DCC011F4807F06D00368F0
:10310000D3F8E0C04CEA0202C3F8E0200068426D48
:103110001143416510BC0020704711F0380F18BFF3
:1031200013F0020FD6D111F4E07F18BF13F0040F93
:10313000D0D111F4F05F18BF13F0080FCAD111F409
:10314000604F18BF13F0100FC4D111F4403F18BFE7
:1031500013F0200FBED111F47C0F18BF13F0400FF5
:10316000B8D1BFE770B490F85CC04B68BCF1020FF7
:1031700006D0016E41F00801016670BC0120704765
:10318000D0F800C0DCF8C44014F4001F06D0016E73
:1031900041F40071016670BC01207047DCF8C4C0C6
:1031A000002B8C680B69CCF3014C43EA04031DBF70
:1031B0000C6844F080441C430C8808BF43EA8444F4
:1031C000D1E906532B4391F820604D6945EA066525
:1031D0002B43CD68466D1D430CEBCC0306EBC303BC
:1031E00043F8044B43F8045BCC68104901EB1441ED
:1031F000097800291EBFC91C5FEA9101D21C0BD0BF
:1032000012F8034C52F8025C491E44EA052443F8C4
:10321000044B02F10402F3D10268012101FA0CF11E
:10322000C2F8CC10816570BC00207047747700082C
:1032300090F85C30012B18BF022B05D0016E41F0D5
:1032400002010166012070470068012A826D0CBFEF
:1032500022EA01011143816500207047006840297E
:103260000CBFD0F89000D0F8980000F00F00704725
:1032700070B490F85CC0BCF1020F06D0016E41F052
:103280000801016670BC01207047D0F800C04029D9
:1032900069D0DCF8984014F00F0F75D0DCF898C0B6
:1032A000CCF30124D0F84CC004EBC4050CEBC50CE6
:1032B000DCF8005015F080455560DCF800500CBF7C
:1032C000C5F38A4525F060451560DCF8005005F02F
:1032D000005595605CF8045B05F0004515613CF80D
:1032E000045BADB2D5615CF8045C05F47025D56073
:1032F0005CF8046C06F4801656615CF8046C06F405
:10330000001696615CF8046CC6F3066616625CF8FB
:10331000046CF60F5662204E06EB15452D78C5B1AC
:103320005B1EACF1010C15F0010F03D01CF8015F1E
:1033300003F8015FD26806EB12421278520808D0F7
:103340009CF801505D701CF8025F03F8025F521E8A
:10335000F6D1006840290CBFC0F89440C0F89C40EA
:10336000002070BC7047DCF8904014F00F0F0BD0B9
:10337000DCF890C0CCF30124D0F848C004EBC405BD
:103380000CEBC50C94E7FFE7016E41F48071016618
:1033900070BC01207047000074770008002804BF4B
:1033A000012070472DE9F0410446DFF8F88190F8DC
:1033B0005C00002620B984F85D60204600F002F928
:1033C0002068816921F01001816102F0C9F9054688
:1033D000206880694FF0030710F0080F0AD000BF83
:1033E00002F0BEF9401B0A2817D82068806910F047
:1033F000080FF5D12068816941F00101816102F077
:10340000AFF905462068806910F0010F13D100BFA5
:1034100002F0A6F9401B0A2808D9206E40F00100EE
:10342000206684F85C700120BDE8F0812068806926
:1034300010F0010FECD02068816941F00201816138
:103440002068404502D1584960680860207C012806
:10345000206881690CBF21F0400141F04001816189
:10346000607C0128206881690CBF41F4804121F40F
:1034700080418161A07C0128206881690CBF21F412
:10348000805141F48051816120688169A26821F4F2
:103490004071114381612068816921F0A40181613B
:1034A0002068016921F010010161E068012810D055
:1034B000C8B1022812D02068816941F08001816181
:1034C0002068016941F010010161E068032805D01E
:1034D00009E02068816941F0040103E02068816906
:1034E00041F020018161207EE2694006A0F1007177
:1034F0006FF0FF0000EB02221143226AA38A521EE2
:103500000A43010201EB03431A432368DA61A2680C
:10351000B2F5407F10D1E36AA26A00EB0320521E8D
:103520001043226B0B1303EB02121043A28C01EB2E
:10353000024108432168C8602068D0F8C010E26BDF
:103540001143C0F8C010194820642168D1F88020C8
:10355000A38E22F4F81242EA0342C1F880201449F3
:1035600061642168D1F8802094F8383022F07062CC
:1035700042EA0362C1F880200E49A1640E49E16469
:103580000E4921650E49616500F5547140F8046BE0
:103590008842FBD3A6652666012084F85C000020E3
:1035A000BDE8F081006400400065004000A40040D8
:1035B00070A40040B0A4004088A5004060A6004070
:1035C00078A6004070B588B0002425480294039482
:1035D0000494816D41F000718165816D01F000718D
:1035E0000691C16C41F00101C164C06C092600F074
:1035F000010006904FF4006002250596CDE9000514
:103600006946F00600F0FCFEE8020090CDE90154A6
:10361000CDE904466946F006039400F0F1FE114836
:103620000068C0F30220C0F10701042988BF04210B
:10363000021D072A34BF0020C01E012202FA01F138
:10364000491E01F0030101FA00F00749000181F869
:1036500000044FF0E0215005C1F8000108B070BD32
:10366000001002400CED00E015E000E090F85C1066
:10367000012905D0016E41F0040101660120704767
:10368000022180F85C1001688A6922F001028A61D7
:1036900000210166084670470B680022002B08BF16
:1036A00070472DE9F84F01260325864C0F2700BFF0
:1036B0000B6806FA02F813EA080300F0FC80D1F860
:1036C00004C0BCF1010F18BFBCF1020F05D0BCF162
:1036D000110F18BFBCF1120F1DD1D0F808904FEA9E
:1036E000420C05FA0CFA29EA0A09D1F80CA00AFAE8
:1036F0000CFC4CEA090CC0F808C0D0F804C02CEA55
:10370000080C91F80480C8F3001808FA02F848EA97
:103710000C0CC0F804C0D0F80C904FEA420CD1F861
:1037200008A005FA0CF829EA08090AFA0CFA4AEA8C
:103730000909C0F80C90D1F80490B9F1020F18BF34
:10374000B9F1120F15D14FEAD20900EB890ADAF864
:1037500020B04FEA42794FEAD96907FA09FE2BEA0D
:103760000E0BD1F810E00EFA09F949EA0B09CAF874
:103770002090D0F8009029EA080891F8049009F008
:10378000030909FA0CFC4CEA080CC0F800C0D1F897
:1037900004C01CF0805F7CD0D4F860C04CF0010CF9
:1037A000C4F860C0D4F860C00CF0010CCDF800C0C3
:1037B00022F0030C0CF1804C0CF5803CDCF8088006
:1037C0004FEA82794FEA197907FA09FA28EA0A08D2
:1037D000B0F1904F08BF4FF0000A28D0A0F1904AF6
:1037E000BAF5806A08BF4FF0010A20D0A0F1904AD4
:1037F000BAF5006A08BF4FF0020A18D0A0F1904A4B
:10380000BAF5406A08BF4FF0030A10D0A0F1904A01
:10381000BAF5805A08BF4FF0040A08D0A0F1904AC8
:10382000BAF5A05A0CBF4FF0050A4FF0060A0AFA83
:1038300009F949EA0808CCF80880DFF88C80D8F844
:1038400000C0D1F804902CEA030C19F4803F18BF93
:103850004CEA030CC8F800C0DFF87080D8F800C04C
:10386000D1F804902CEA030C19F4003F18BF4CEA7D
:10387000030CC8F800C0DFF85880D8F800C0D1F8B1
:1038800004902CEA030C19F4801F18BF4CEA030CB7
:1038900000E010E0C8F800C0DFF83880D8F800C0B9
:1038A000D1F804902CEA030C19F4001F18BF4CEA5D
:1038B000030CC8F800C00B68521CD3407FF4F8AE6C
:1038C000BDE8F88F001002400004014004040140EC
:1038D000080401400C040140014880687047000062
:1038E0001C01002090F84120202A24D190F840208B
:1038F000012A20D0012280F84020242280F8412093
:103900000268136823F0010313600268136823F44C
:1039100080531360026813681943116001680A68D4
:1039200042F001020A60202180F84110002180F855
:103930004010084670470220704790F84120202A26
:1039400022D190F84020012A1ED0012280F8402088
:10395000242280F841200268136823F001031360D9
:103960000268136823F4706343EA0121116001685F
:103970000A6842F001020A60202180F8411000210B
:1039800080F840100846704702207047002804BFA6
:103990000120704770B5044690F84100002520B919
:1039A00084F84050204600F003F9242084F84100B8
:1039B0002068016821F0010101606068216820F041
:1039C000706008612068816821F400418160E068CE
:1039D0000128A0680CBF40F4004040F40440216876
:1039E0008860E068022802D121688002486020686F
:1039F000416841F4004141F0007141602068C168B4
:103A000021F40041C160D4E904010843A16940EAFE
:103A100001202168C860D4E90701084321680860D3
:103A20002068016841F0010101606564202084F88C
:103A30004100256384F84250002070BD2DE9F84F05
:103A4000044690F84100DDF828B0984691460D46AE
:103A5000202878D194F84000012874D0012084F8FF
:103A60004000FFF739FF0746012200901923D103D8
:103A7000204600F08DFA00287DD1212084F84100F5
:103A8000102084F8420000266664C4F82490A4F84C
:103A90002A806663608DC5F3090A42494AF47F05AE
:103AA000DFF804814FF0FF0945F08075FF280CD93D
:103AB000A4F828902068426822EA010145F40052E7
:103AC00042F00042114341600FE0608D2085226882
:103AD00094F8280053684AEA004040F4005023EA72
:103AE000010140F0024008435060608D00283CD046
:103AF0003A465946204600F0F9FA00283BD1606A60
:103B0000216800788862606A401C6062608D401E97
:103B10006085208D401E80B22085618D11B308BB69
:103B20005B46002280212046009700F031FA10BB4E
:103B3000608DFF2808D9A4F828902068416821EA00
:103B4000080129430DE02AE0608D2085206894F863
:103B5000281042684AEA014122EA080241F0007155
:103B600011434160608D0028C2D13A465946204633
:103B700000F046FA10B10120BDE8F88F206820213E
:103B8000C16120684268094B1A40426084F84110C4
:103B900084F8426084F840600020BDE8F88F02207D
:103BA000BDE8F88FFF67FF03FF63FF0300E800FE37
:103BB0002DE9F04186B04FF00008CDF80080CDF837
:103BC0000480CDF80880CDF80C80CDF81080006816
:103BD000A0F18041B1F5B0411CBF06B0BDE8F08155
:103BE000174CE06C40F00400E064E06C00F004006E
:103BF0000590E06C40F00100E064E06C122500F0FC
:103C0000010005901020CDE9000501260427694632
:103C1000049702960B48FFF73FFDA01504978DE827
:103C200061016946A806FFF737FDA06D40F48000EA
:103C3000A065A06D00F48000059006B0BDE8F0819D
:103C400000100240000800480248816842681144A0
:103C5000816070471C01002010B50024032000F093
:103C600075F8002000F008F8002814BF012400F0C7
:103C700025F8204610BD000070B50E4E0546002404
:103C8000706898B14FF47A71B1FBF0F00A49096895
:103C9000B1FBF0F000F06CF840B9102D06D2002214
:103CA0002946501E00F020F8356000E0012420462F
:103CB00070BD00001C01002018010020094881B0DF
:103CC000016E41F001010166016E01F001010091F8
:103CD000816D41F080518165806D00F080500090D1
:103CE00001B0704700100240174B10B41B68C3F3BB
:103CF0000223C3F1070CBCF1040F88BF4FF0040C82
:103D00001C1D072C34BF0023DB1E012404FA0CFC0D
:103D1000ACF1010C0CEA0101994004FA03F35B1EBB
:103D20001A40114300284FEA0111A1BF00F1E02021
:103D300080F8001410BC704700F00F0000F1E02084
:103D400080F8141D10BC70470CED00E0074900F02E
:103D500007000A684FF6FF031A4042EA002040F0CD
:103D6000FD7040F080600860704700000CED00E0DE
:103D7000411EB1F1807F24BF012070474FF0E02049
:103D80004161054AF02182F8141D0021816107215B
:103D900001610020704700000FE000E0002808BF2C
:103DA000704730B4A0F108011E4B50F8042CD868BD
:103DB000024204BF30BC7047D1F800C0BCF1000F14
:103DC0001CBF30BC704722EA000048605A681044AB
:103DD0005860154802688A4238BF1046FAD3D0F8B6
:103DE00004C00CEB00048C4203D14968614441607B
:103DF0000146D1F804C00CEB0104944218BF0A60DC
:103E00000AD11B689A4208BF0B6005D05268624411
:103E10004A60026812680A60884218BF016030BCBC
:103E20007047000000010020100100202DE9F00F74
:103E3000534C844600202168054604F11003E9B97B
:103E400050494FF4405211F0070F06D0C91D4D4A9A
:103E500021F007018A1AC2F540520A44083AC3E920
:103E6000001522F0070222605560561A1560C1E95C
:103E70000026A6604FF000416660E160E7681CEA3A
:103E8000070F1CBFBDE8F00F7047BCF1000F04BF67
:103E9000BDE8F00F70470CF1080212F0070F04D0D4
:103EA00002F00701C1F108010A44002A04BFBDE87D
:103EB000F00F70476668B24299BFDFF8CCC019684E
:103EC000BDE8F00F70474B68934205D20B68002B9A
:103ED0001CBF8C461946F6D1D4F80080414504BF7A
:103EE000BDE8F00F7047DCF800000B68CCF800303C
:103EF0004B680830A3EB020CBCF1100F30D98B18C3
:103F0000C3F804C04A60204AD2F800C09C4538BFBC
:103F10006246F9D3D2F8049009EB020A9A4503D11C
:103F20005B684B4453601346D3F8049009EB030AD3
:103F3000E24518BFC3F800C00FD1C44508BFC3F89D
:103F400000800AD0DCF804C0CC44C3F804C0D2F826
:103F500000C0DCF800C0C3F800C09A4218BF13606C
:103F60004B68F21A6260D4F808C0624588BF6246A6
:103F7000A26043EA0702C1E90052BDE8F00F7047B2
:103F8000000100204404002010010020FEF7A4B925
:103F90002DE9F04104460068DDF818801D4680696F
:103FA00016460F4631EA00000CBF01200020B04247
:103FB00013D100BFB5F1FF3F06D0FFF78DFCA0EB9A
:103FC0000800A8420CD85DB12068806937EA00007B
:103FD0000CBF01200020B042ECD00020BDE8F081F1
:103FE000606C40F020006064202084F841000020D4
:103FF00084F8420084F840000120BDE8F081000010
:104000002DE9F0410446006816460D46806910F01F
:10401000200F04BF4FF02008002755D12068806989
:1040200010F0100F45D02068806910F0200F0DD1DE
:10403000B5F1FF3F05D0FFF74FFC801BA84217D812
:10404000B5B12068806910F0200FF1D021681020F0
:10405000C8612068C0F81C802068816911F0020FD7
:1040600018BF87622068816911F0010F0FD10AE043
:10407000606C40F02000606484F8418084F84270F5
:1040800084F8407012E0816941F00101816120688B
:104090004168154A11404160606C40F00400606462
:1040A00084F8418084F8427084F840700120BDE8B3
:1040B000F081FFF711FC801BA84208D83DB12068B1
:1040C000806910F0200FA9D00020BDE8F081606C5D
:1040D00040F02000606484F8418084F8427084F8E5
:1040E00040700120BDE8F08100E800FE2DE9F041BC
:1040F0000446006816460D46806910F0020F04BFA2
:104100004FF02008002758D12068806910F0100F68
:1041100045D02068806910F0200F0DD1B5F1FF3F28
:1041200005D0FFF7D9FB801BA84217D8B5B120688E
:10413000806910F0200FF1D021681020C86120683C
:10414000C0F81C802068816911F0020F18BF8762D7
:104150002068816911F0010F0FD10AE0606C40F016
:104160002000606484F8418084F8427084F84070D4
:1041700012E0816941F00101816120684168174ABC
:1041800011404160606C40F00400606484F841803C
:1041900084F8427084F840700120BDE8F081B5F1E8
:1041A000FF3F05D0FFF798FB801BA84208D83DB120
:1041B0002068806910F0020FA6D00020BDE8F081D1
:1041C000606C40F02000606484F8418084F84270A4
:1041D00084F840700120BDE8F081000000E800FE96
:1041E00000B587B0002002900390049005900A4823
:1041F000C16C41F00201C164C06C402100F00200BA
:10420000069006488162009101210191694600F003
:10421000F7F807B000BD000000100240000400489D
:1042200010B5244C606801F095FA002808BF10BD55
:1042300001F096FA6060FEF73BFD1F4940F2DC5248
:104240004FF6FF73072830D2DFE800F02F040B177A
:104250002F2D2D00208830B3642821D090421DD20C
:1042600023E02088F8B164281AD0C8281BD0B0F504
:10427000967F15D0904211D217E0208898B164281B
:104280000ED0C8280FD0B0F5967F09D0B0F5C87F02
:1042900009D0B0F5FA7F03D0904206D3238004E022
:1042A0004020886201E0402088612088401C2080F6
:1042B00010BD0000080000200004004810B44FF0BA
:1042C000A04C4A68DCF808400023DCF808C144EA46
:1042D0000C0C1CF0010F18BF012302D010BC1846B3
:1042E0007047DFF828C052B10C682243D1E902417F
:1042F00021431143826802EA0C02114304E0826800
:10430000096802EA0C0211438160E7E7E030C0FF70
:104310004B68D0F808C000221CF0010F18BF012222
:1043200001D0104670475BB1D1E9023C43EA0C036F
:10433000D0F80CC02CF0047C43EA0C03C36007E007
:10434000C368D1F80CC023F0047343EA0C03C360C4
:10435000D1E900310B43C16C6FF308011943C1640B
:10436000DFE78368002213F0010F18BF012201D09C
:1043700010467047D1E9003C43EA0C038968D0F845
:104380000CC02CF0180C2CF4404C41EA0C011943E1
:10439000C160EDE730B44B68D0F808C000221CF0D3
:1043A000010F18BF012202D030BC10467047002B0D
:1043B000DFF848C00B680ED08C682343D1E9034571
:1043C0002C4323434C692343C46804EA0C0C43EA9E
:1043D0000C03C3600BE0CC682343D1E904452C43B4
:1043E0002343C46804EA0C0C43EA0C03C360496825
:1043F000036B23F00F0319430163D5E71CC0F0FFE3
:104400002DE9F0030A6892FAA2F3B3FA83F3DA40D3
:104410007DD001250F244FF0030C00BF0E6805FA74
:1044200003F2324074D04E68012E18BF022E1FD105
:104430008F68D0F8088092FAA2F6B6FA86F676006F
:104440000CFA06F628EA060692FAA2F8B8FA88F8F4
:104450004FEA480807FA08F73E438660CF680E68BF
:10446000D0F8048028EA06087E4348EA060646603B
:104470000E69D0F80C8092FAA2F7B7FA87F77F009E
:104480000CFA07F728EA070792FAA2F8B8FA88F8B0
:104490004FEA480806FA08F63E43C6604E68022E08
:1044A00031D1B2F5807F16D24E69076A92FAA2F82E
:1044B000B8FA88F84FEA880804FA08F827EA0807E3
:1044C00092FAA2F8B8FA88F84FEA880806FA08F6CD
:1044D0003E43066217E04F69D0F82480160A96FA28
:1044E000A6F9B9FA89F94FEA890904FA09F996FA9D
:1044F000A6F6B6FA86F6B60028EA090807FA06F61E
:1045000048EA060646624F68D0F8008001E017E0EE
:1045100011E092FAA2F6B6FA86F676000CFA06F6E2
:1045200092FAA2F2B2FA82F2520028EA060607FADA
:1045300002F2324302600A685B1CDA407FF46EAF1D
:10454000BDE8F003002070470368012213F0400F1C
:1045500029D1D1E900231A43D1E9033C43EA0C03F2
:104560001A434B691A438B691A43CB691A430B6A86
:104570001A43036823F0BF0323F47F431A43026006
:1045800042684B6922F4417222F4406242EA1342CB
:104590008B681A4342600A6AB2F5005F02D1898CC7
:1045A00089B201610022C16921F40061C161104634
:1045B00070470000014908607047000018010020A2
:1045C0002DE9F0010268224B224CDFF88C80DFF8E5
:1045D0008CC0984218BFB0F1804F04D0A0421CBFDD
:1045E0004045604503D14D6822F070022A431C4DBE
:1045F0001C4E1D4F984218BFB0F1804F0BD0A04207
:1046000018BF404507D0604518BFA84203D0B0424C
:1046100018BFB84203D1CC6822F440722243026032
:104620008A68C2620A888262984218BF604504D0D4
:10463000A8421CBFB042B84201D109690163416977
:1046400041F001014161BDE8F00100207047000028
:10465000002C0140000400400008004000340140EC
:104660000040014000440140004801402DE9F007AE
:104670000023DFF838C3CE4CCE4DCF4ECF4F4FF096
:104680000108B1F5805F00F0E08008DC012910D05E
:10469000102952D0B1F5807F7ED000F083B9B1F5FA
:1046A000803F00F01781B1F5801F00F0488100F0D5
:1046B00079B9016A21F001010162016AD0F8048030
:1046C000D0F81890D2F800A029F0730929F48039A5
:1046D00049EA0A09D2F810A021F0020141EA0A01D0
:1046E000D2F804A021F0010141EA0A01604518BF97
:1046F000A04204D0A8421CBFB042B84215D1D2F8A3
:1047000014C021F0080141EA8C01D2F808C021F060
:10471000040141EA8C01946928F4807C4CEA040C81
:10472000D4692CF4007C4CEA4408C0F80480C0F83A
:104730001890D268426300F033B9016A21F0100189
:104740000162D0F820804168D0F81890D2F800A01B
:1047500029F4E64929F0807949EA0A29D2F810A01B
:1047600028F0200848EA0A18D2F804A028F0100817
:1047700048EA0A18604518BFA04204D0A8421CBFEE
:10478000B042B84217D1546928F0800C4CEA841C1E
:104790002CF0400C946800E013E04CEA8418D2F846
:1047A00018C021F4806141EA8C01D2F81CC021F4C8
:1047B000006141EACC014160C0F81890D168816382
:1047C00040E0016A21F480710162D0F820804168E4
:1047D000D0F81C90D2F800A029F0730929F4803990
:1047E00049EA0A09D2F810A028F4007848EA0A2811
:1047F000D2F804A028F4807848EA0A28604518BF57
:10480000A04204D0A8421CBFB042B84215D154699E
:1048100028F4006C4CEA842C94682CF4806C4CEAEC
:104820008428D2F818C021F4805141EA0C11D2F842
:104830001CC021F4005141EA4C114160C0F81C90A9
:10484000D168C163C0F82080ABE0016A21F48051D7
:104850000162D0F820804168D0F81C90D2F800A006
:1048600029F4E64929F0807949EA0A29D2F810A00A
:1048700028F4005848EA0A38D2F804A028F48058EE
:1048800048EA0A38604518BFA04204D0A8421CBFBD
:10489000B042B84215D1546928F4004C4CEA843C2B
:1048A00094682CF4804C4CEA8438D2F818C021F477
:1048B000804141EA8C11D2F81CC021F4004141EA48
:1048C000CC114160C0F81C90D1680164C0F8208010
:1048D000984667E0016A21F480310162D0F82080B7
:1048E000016DD2F8009021F0700121F4803141EA8D
:1048F0000901B2F8109028F4003848EA0948B2F8E3
:10490000049028F4803848EA0948604518BFA0425E
:1049100004D0A8421CBFB042B84208D1D0F804C0AD
:1049200094692CF4803C4CEA042CC0F804C0016566
:10493000D168826C8164C0F82080984632E0016AB8
:1049400021F480110162016AD0F85080D2F8009001
:1049500028F4E04828F0807848EA0928B2F8109056
:1049600021F4001141EA0951B2F8049021F48011B8
:1049700041EA0951604518BFA04204D0A8421CBFBB
:10498000B042B84208D1D0F804C094692CF4802C0D
:104990004CEA842CC0F804C0C0F85080D268C264CD
:1049A000016298464046BDE8F0077047002C014080
:1049B00000340140004001400044014000480140F3
:1049C00038B4214C00230420A0622048ADF8003008
:1049D000EC46016811F0020F42F2107108BF01228B
:1049E00007D102E0521C8A4203D8056815F0020F75
:1049F000F8D0174A1360026812F0800F18BF012226
:104A000006D0036813F0800F02D0521C8A42F8D9F6
:104A1000026812F0010F08BF012207D102E0521C08
:104A20008A4203D8036813F0010FF8D00948C06820
:104A3000ACF800000420A0610749BDF80000088020
:104A400038BC800870470000000C0048083C00405B
:104A50000C3C0040003C00402C000020144810B5E5
:104A6000124901601349416000210122C0E902128C
:104A7000016141618161C1610162FEF787FF002828
:104A800018BFFDF729FC00210948FEF72BFF00287D
:104A900018BFFDF721FC00210548FEF74EFF002856
:104AA00008BF10BDBDE81040FDF716BC005800401F
:104AB000443400209B2D8010FDF70EBCFDF70CBC8C
:104AC000F0B5002583B004465FF0FF0700218DF8A4
:104AD000041005F1B0008DF80500022301AA782129
:104AE00019480097FEF7AAFF00208DF804008DF802
:104AF0000500022301AA782113480097FEF79EFFC4
:104B000000218DF8041010208DF80500022301AA61
:104B100078210D480097FEF791FF002640208DF880
:104B200004008DF80540022301AA78210648009769
:104B3000FEF784FF701CC6B2802EEFD3681CC5B28E
:104B4000082DC3D303B0F0BD4434002010B582B0AB
:104B5000C820FEF763FA00218DF80410AE208DF80E
:104B60000500FF24022301AA7821B1480094FEF732
:104B700065FF00218DF8041020208DF80500022328
:104B800001AA7821AA480094FEF758FF00218DF869
:104B9000041010208DF80500022301AA7821A448F2
:104BA0000094FEF74BFF00218DF80410B0208DF823
:104BB0000500022301AA78219D480094FEF73EFFDC
:104BC00000218DF80410C8208DF80500022301AAE9
:104BD000782197480094FEF731FF00208DF80400FB
:104BE0008DF80500022301AA782191480094FEF770
:104BF00025FF00218DF8041010208DF805000223F8
:104C000001AA78218A480094FEF718FF00218DF848
:104C1000041040208DF80500022301AA7821844861
:104C20000094FEF70BFF00218DF8041081208DF811
:104C30000500022301AA78217D480094FEF7FEFEBC
:104C400000208DF804008DF80540022301AA782188
:104C500077480094FEF7F2FE00218DF80410A120A1
:104C60008DF80500022301AA782171480094FEF70F
:104C7000E5FE00218DF80410A6208DF80500022322
:104C800001AA78216A480094FEF7D8FE00218DF829
:104C90000410A8208DF80500022301AA7821644899
:104CA0000094FEF7CBFE00218DF804103F208DF814
:104CB0000500022301AA78215D480094FEF7BEFE9C
:104CC00000218DF80410A4208DF80500022301AA0C
:104CD000782157480094FEF7B1FE00218DF80410AA
:104CE000D3208DF80500022301AA782150480094B2
:104CF000FEF7A4FE00208DF804008DF805000223C5
:104D000001AA78214A480094FEF798FE00218DF808
:104D10000410D5208DF80500022301AA782144480B
:104D20000094FEF78BFE00218DF80410F0208DF822
:104D30000500022301AA78213D480094FEF77EFE7B
:104D400000218DF80410D9208DF80500022301AA56
:104D5000782137480094FEF771FE00218DF8041089
:104D600022208DF80500022301AA78213048009402
:104D7000FEF764FE00218DF80410DA208DF805009E
:104D8000022301AA78212A480094FEF757FE002149
:104D90008DF8041012208DF80500022301AA782155
:104DA00023480094FEF74AFE00218DF80410DB2012
:104DB0008DF80500022301AA78211D480094FEF712
:104DC0003DFE00218DF8041020208DF805000223FF
:104DD00001AA782116480094FEF730FE00218DF8D4
:104DE00004108D208DF80500022301AA78211048B7
:104DF0000094FEF723FE00218DF8041014208DF896
:104E00000500022301AA782109480094FEF716FE46
:104E100000218DF80410AF208DF80500022301AAAF
:104E2000782103480094FEF709FE02B010BD00008F
:104E3000443400202DE9F04FFF2489B091460F46FD
:104E400005464FF000084FF0100B012B7ED0022BCF
:104E50001CBF09B0BDE8F08F99F80000002812BF10
:104E6000DFF80CB209B0BDE8F08F00BF19F80800F8
:104E7000203800F0FF0A782D02D90025781CC7B22F
:104E800000218DF8101007F1B0008DF811000223F9
:104E900004AA782177480094FEF7D0FD1020002165
:104EA00040EA15108DF814108DF8150004900223B7
:104EB00005AA78216F480094FEF7C0FD05F00F00A9
:104EC000059000218DF8041040F001008DF80500D8
:104ED000022301AA782167480094FEF7AFFD00265F
:104EE00006EB0A1040211BF800008DF818108DF811
:104EF0001900022306AA78215E480094FEF79EFD61
:104F0000701CC6B2082EEBD300218DF8041007F1F7
:104F1000B1008DF80500022301AA782155480094BC
:104F2000FEF78CFD00218DF8041004988DF8050023
:104F3000022301AA78214F480094FEF77FFD0598CF
:104F4000002140F001008DF8041000E02DE08DF804
:104F50000500022301AA782146480094FEF76EFD61
:104F60005FF0000606EB0A1058444021007A8DF8E5
:104F700010108DF81100022304AA78213D480094F6
:104F8000FEF75CFD701CC6B2082EEBD305F10800DD
:104F9000C5B208F1010000F0FF0819F80800002868
:104FA0007FF464AF09B0BDE8F08F99F800000028E5
:104FB00004BF09B0BDE8F08F19F80800203800F0F0
:104FC000FF0A7E2D02D90025781CC7B200218DF87A
:104FD000101007F1B0008DF81100022304AA782107
:104FE00024480094FEF72AFD00218DF810104BEAAA
:104FF00015108DF81100022304AA78211D48009491
:10500000FEF71CFD002105F00F008DF8041040F0A4
:1050100001008DF80500022301AA782115480094AB
:10502000FEF70CFD14490AEB4A00002601EB400A8A
:1050300040211AF806008DF810108DF81100022397
:1050400004AA78210B480094FEF7F8FC701CC6B245
:10505000062EEDD3A81DC5B208F1010000F0FF082F
:1050600019F808000028A7D109B0BDE8F08F0000AA
:10507000C07D000844340020987B00082DE9F04FE3
:10508000ABB0002411940E94009401940294039404
:105090000494059406940794089409940A940B9434
:1050A0000C94FE4D0D94286E40F400602866286E26
:1050B000FB4E00F40060139040200F9040F64750E4
:1050C000109001201290ADF838400EA93046FFF73D
:1050D00077FA306840F0800030606020CDE900044D
:1050E00040F2A460CDE90240DFF8B893049405943F
:1050F0000694079499F80000DFF8ACA3504480466A
:10510000016809F10A074FF0080B3A780BFA02F22E
:10511000114301606A4601213046FFF7A7FAD8F82B
:10512000001040463A784FF0040808FA02F2914322
:10513000016099F80200504414900168BA780BFAA3
:1051400002F2114301606A4610213046FFF78EFAE1
:1051500014980168BA7808FA02F29143016099F84C
:1051600004005044149001683A790BFA02F211439A
:1051700001606A46A9153046FFF778FA149801686D
:105180003A7908FA02F29143016040F63E500390EA
:1051900099F8060000EB0A09D9F80000B9790BFA72
:1051A00001F10843C9F800006A46A9143046FFF728
:1051B0005DFAD9F80000B97908FA01F18843C9F815
:1051C0000000706820F0700020F0007040F0700067
:1051D0007060706820F470007060B06820F080002B
:1051E000B060E86C40F00100E864E86C022600F072
:1051F00001001390A8150890CDE909640627CDE9B0
:105200000C4708A94FF090400B94FFF7F9F8681588
:105210000890CDE90964CDE90C4708A94FF090400A
:105220000B94FFF7EDF828150890CDE90964CDE956
:105230000C4708A94FF090400B94FFF7E1F82A942F
:1052400028942994169417941894149415942594DA
:1052500026942794199424941B941C941D941A94B6
:105260002094219422942394E86C40F40050E86444
:10527000E86C00F400501390E86C40F00200E86421
:10528000E86C1EA900F0020013900320CDE91E6017
:105290008648FFF7B5F82894299428A94FF0A04034
:1052A0002A94FFF75EF8159416941794189414A98D
:1052B0004FF0A0401994FFF76DF84FF0A045D5F8D6
:1052C000C0006FF30D00C5F8C000286920F48030DD
:1052D0002861286920F0030020F480602861B00470
:1052E000CDE9240424A97248FEF7E8FF8020CDE927
:1052F0001A041C941AA928461D94FFF709F8E868B7
:1053000020F4001020F0004040F00040E8602869E0
:1053100020F0030020F480602861E86C20F4C07065
:1053200040F08000E864A86820F03F0020F02040B2
:10533000A860A86820F03F0020F0004040F08050B6
:10534000A8605C4E5C4FDFF874813068B0FBF7F00A
:1053500000EB80004000A8FB0010C00803D0B0F1B3
:10536000004F80F0558156480424016821F4E07113
:1053700041F0400101604FF0A04050F8B01F0025FF
:1053800021F4805140F86419016821F4785141F406
:10539000C05101602595269524951B951C951D955A
:1053A0001E953E481A9520952195229523951F9587
:1053B0001695179518951995C16C41F40051C16463
:1053C000C16C01F400511391C16C41F00401C1643E
:1053D000C16C01F004011391C16C41F00201C16480
:1053E000C06C14A900F00200139020201490032038
:1053F00015903448FFF704F80320CDE9144014A9B0
:1054000018952A48FEF7FCFF2F4C2495259524A9D2
:1054100020462695FEF7A5FF1A951B951C951D9510
:105420001E951AA920461F95FEF7B4FFD4F8C000B8
:105430006FF30D00C4F8C000206920F480302061B3
:10544000206920F0030020F4806020618020CDE9F5
:105450002005229520A920462395FEF759FFE068F4
:1054600020F4001020F0004040F00040E06020698F
:1054700020F0030020F480602061E06C20F4C07014
:1054800040F08000E064A06820F03F0020F0204061
:10549000A060A06820F03F0018E00000001002406B
:1054A000002C014084770008182C014000040048BB
:1054B0000003005018010020400D0300CDCCCCCCDF
:1054C00018000050000800480001005020F0004083
:1054D00040F08050A0603068B0FBF7F000EB800037
:1054E0004000A8FB0010C00802D0B0F1004F7DD2F0
:1054F0004B484A4C00684A4920F4F86040F4307048
:1055000008604848016821F0380141F00801016055
:10551000D4F8B01021F40061C4F8B010016821F48F
:10552000E07141F040010160D4F8B00020F48050F7
:10553000C4F8B000E06C20F4785040F4C050E0644F
:105540000A2000F0AFF84FF0A040816821F03F0141
:1055500021F0404141F0004181608168C90FFCD1D8
:10556000A16821F03F0121F0404141F00041A160DC
:10557000A168C90FFCD1816821F03F0121F00041F1
:1055800041F001018160A16821F03F0121F000415B
:1055900041F00101A16024490968C1F30221C1F170
:1055A0000702042A88BF04220B1D072B34BF0021E9
:1055B000C91E012303FA02F2521E02F0010202FA8E
:1055C00001F11A4A090182F800144FF0E02299040F
:1055D000C2F80011416841F040014160816821F04A
:1055E0003F0121F0004141F0080100E013E081603B
:1055F000A06820F03F0020F0004040F00800A060CC
:105600000B48016841F0010101602BB0BDE8F08F4B
:10561000401EFDD1A7E6401EFDD169E70001005004
:1056200030010050180100500CED00E012E000E0E5
:10563000002C01400748416C21F4004141640648B8
:105640006FF001020260016811F0010FFBD00260EF
:1056500070470000002C0140102C01400D4940F221
:10566000A4600860091F0860091F08600A486FF0FD
:1056700001020260016811F0010FFBD002600748CF
:1056800040F21111026A11430162416C41F4004180
:10569000416470473C2C0140102C0140002C01401B
:1056A0007047704770B4451E27BF4FF0E02C144C74
:1056B00070BC70474FF47A73DCF81820002000BFEC
:1056C000DCF818108A423EBFC1F5016606F52436A3
:1056D000324488BF521A00D010440A46A4FB00612D
:1056E0004FEAD1118B4203D86D1EE3D270BC7047D4
:1056F0005B1A6FF05406714300EB4100E0E70000D5
:10570000C1C0C0C030B44FF0E02C0021DCF818302C
:105710000F4C00BFDCF8182093423EBFC2F5016574
:1057200005F524352B4488BF9B1A00D01944134635
:10573000A4FB01524FEAD21290429CBF30BC70478A
:10574000801A6FF054056A4301EB4201E2E7000062
:10575000C1C0C0C001490968081A70470400002090
:105760000148006870470000040000204FF0E0216D
:105770001048486110480068C0F30220C0F10702D9
:10578000042A88BF0422031D072B34BF0020C01E3B
:10579000012303FA02F2521E02F0020202FA00F0A2
:1057A000064B0022000183F8140D8A61072008616E
:1057B000704700000F9802000CED00E00FE000E0E1
:1057C00002480168491C0160FEF73EBA040000204F
:1057D000434810B5016821F00F0141F00401016058
:1057E000016801F00F010429FAD13E4850F8801FEA
:1057F00021F4807101603C4C206840F4807020608E
:105800002068C0F380200028FAD0606820F0FE40B5
:1058100040F080406060E16845F23250334A114008
:105820000843E060E06840F08070E060206840F08D
:10583000807020602068C0F340600028FAD0A06823
:1058400040F00300A060A06820F0F00040F080006D
:10585000A060A06800F00C000C28FAD12448016870
:1058600041F0807101602348016841F0010101604D
:105870000021416041686429FCD3A06820F0F00059
:10588000A060A06820F4E060A060A06820F46050F0
:10589000A0601948FEF78EFE0020FEF7EDF918B162
:1058A00072B6FDF7BBF9FEE71448016821F44041E8
:1058B0000160D4F8880020F00C00C4F88800D4F807
:1058C000880020F0405040F00050C4F88800D4F820
:1058D000880020F0407040F00070C4F8880010BDCF
:1058E0000020024000700040001002400C80FFF9D0
:1058F000FCED00E0001000E080FE210A881002406C
:105900000448016841F47001016003494FF00060F0
:105910000860704788ED00E008ED00E034499FED35
:10592000331AB5EEC00AD1ED000AD1ED021A3148A2
:10593000F1EE10FA38BFC0ED000A16D391ED062A39
:10594000F6EE002AB4EEC20AF1EE10FA10D291ED92
:10595000031A41EE800A21EE222A60EE002A41EE6F
:10596000001A42EE220AC0ED000AC0ED011A2DE035
:10597000D1ED070A72EE200AF4EEC00AF1EE10FA39
:105980000ADD70EE421AD1ED090A91ED040A40EEEB
:10599000210AC0ED000A17E0D0ED031A144AF4EE14
:1059A000C01AD2ED010AF1EE10FA12DD30EE610AF2
:1059B00091ED051A61EE221A20EE002A21EE000A6E
:1059C00041EE820AC0ED000A80ED010A80ED021A64
:1059D0007047F4EEC01AF1EE10FA88BF7047C0EDC0
:1059E000000A80ED011A80ED021A704700000000E5
:1059F000980000202C04002010B52DED0A8BF0EE4D
:105A000062CAF0EE418AF0EE00BAB0EE609A28EE7B
:105A1000A8BA6CEEAB0AF0EE40AA84B0B0EE42AA8F
:105A20008BEE200AB0EE61CA7AEEC99A10EE100A27
:105A3000FAF74BFCCDE9020118EE900AFAF745FCA3
:105A4000CDE900010399019861F31E0003909DEDDB
:105A5000020B51EC100BFAF74BFC00EE100A39EE7A
:105A6000C00A10EE100A0028B4BFBFEE008AB7EEDD
:105A7000008A28EE0A0A644C28EE281A68EE6C0A9E
:105A800084ED030A28EE0C0AC4ED050A84ED040A2D
:105A900068EE001AB4EEE11AF1EE10FAC4BF28EE77
:105AA0004A1A84ED031A30EE682A94ED031AF1EED7
:105AB000402AB6EE00AAC2EE011A82EEA02A70EECB
:105AC000282AC4ED061A61EE8A1A61EEA21A84ED44
:105AD000082A22EE0A2A42EE001A28EE292A68EE47
