:020000040800F2
:1000000038440020ED010008913C000855390008F3
:100010008D3C0008C51100082145000800000000C3
:10002000000000000000000000000000033D000888
:100030002D21000800000000013D0008213E0008BD
:10004000070200080702000807020008070200086C
:10005000070200080702000807020008070200085C
:10006000070200080702000807020008070200084C
:10007000070200080702000807020008070200083C
:100080000702000800000000A50E00080702000893
:1000900007020008D523000807020008070200082D
:1000A000070200080702000807020008070200080C
:1000B00007020008070200080702000807020008FC
:1000C00007020008070200080702000807020008EC
:1000D000070200080702000849420008070200085A
:1000E00007020008070200080702000807020008CC
:1000F00007020008070200080702000800000000CD
:1001000000000000070200080000000007020008CD
:1001100007020008000000000702000807020008AC
:10012000070200080702000807020008070200088B
:10013000070200080000000000000000070200089D
:10014000070200080702000800000000000000008D
:10015000000000000000000000000000000000009F
:10016000000000000000000000000000070200087E
:10017000070200080000000000000000000000006E
:10018000000000000702000800000000000000005E
:10019000000000000000000000000000000000005F
:1001A000000000000000000007020008070200082D
:1001B000070200080702000807020008000000000C
:1001C000000000000702000800000000000000001E
:1001D0000702000807020008DFF80CD000F0BCFAA4
:1001E000004800471D520008384400200648804758
:1001F00006480047FEE7FEE7FEE7FEE7FEE7FEE70C
:10020000FEE7FEE7FEE7FEE7293F0008D901000808
:1002100040EA01039B0703D009E008C9121F08C088
:10022000042AFAD203E011F8013B00F8013B521E08
:10023000F9D27047D2B201E000F8012B491EFBD27F
:1002400070470022F6E710B513460A4604461946E1
:10025000FFF7F0FF204610BD30B5044600200346EE
:1002600000E05B1C934203D2E05CCD5C401BF8D005
:1002700030BD70B5064604F055F9046805460A22FB
:100280000021304600F0AEF82C6070BD70B5C1F3AF
:100290000A5201F000450024C1F3130140F2FF337C
:1002A00041F480119A4201DA002070BD40F23343DC
:1002B0009A42A2F2334203DC524200F035F800E0E9
:1002C00090402C43F1D0404270BD00F0004230F02D
:1002D00000400AD0C10D01F56071C0F3160042EA7A
:1002E0000151C20840071143704700200146704782
:1002F00001F0004330B421F0004150EA010206D081
:100300000A0DA2F56072C1F31301002A02DC30BCB1
:1003100000207047440F44EAC104C100E01830BC1B
:1003200000EBC25000F096B8202A04DB203A21FAF4
:1003300002F00021704721FA02F3D040C2F12002FE
:1003400091400843194670470FB4002300B589B0A7
:100350000CA900910B996FF00042CB601E4B0693E5
:100360001E4B07930423CDE901321D4A0892024631
:100370006B46002000F0B2FA09B05DF814FB70B5CE
:1003800086B006464FF0FF300091CDE90101002014
:1003900015460C4604903246694604A8FFF7D4FF80
:1003A00003460498211825B108B10A4600E0224608
:1003B0002A6000280DD0002B02DD0098884208D06A
:1003C000081B0094CDE901043246694604A8FFF7F2
:1003D000BBFF06B070BD0000150B0008330B000812
:1003E000C90700082DE9F04791460F4680460446AC
:1003F000002614F8015B2DB100F0E2F90068405DC1
:10040000C007F6D12B2D02D02D2D18D0641E4A46E0
:100410003946204600F09EFB27B13968A14201D140
:10042000C7F8008071054FF002040BD54042002848
:1004300003DD04F077F80460A007BDE8F08746F418
:100440008066E4E70028F8DA04F06CF804606FF0E6
:100450000040F2E70029A8BF7047401C490008BFD0
:1004600020F00100704710B4B0FA80FC00FA0CF0E4
:1004700050EA010404BF10BC704749B1CCF120041C
:1004800021FA04F411FA0CF118BF012121430843A9
:10049000A3EB0C01CB1D4FEA00614FEA102042BFD5
:1004A000002010BC704700EBC35010440029A4BFCB
:1004B00010BC7047401C490008BF20F0010010BC70
:1004C00070472DE9FE4F804681EA0300C00F0C46BD
:1004D000009021F0004123F00045B8EB0200A94153
:1004E00005D24046214690461C460B46024623F064
:1004F0000040104347D0270DC7F30A00C3F30A5149
:100500000290401A019040286BDAC3F3130040F4C4
:10051000801B0098924620B10023D2EB030A63EBC4
:100520000B0B01985946C0F14002504600F026F9E5
:1005300006460D4650465946019A00F02EF910EB3A
:1005400008006141002487EA115284EAE7731A43E4
:1005500040D0009A62B3019A012A4FEA075215DC93
:10056000001B61EB02014FF0004202EA0752CDE9A5
:100570000042001C41F5801132462B4600F048FB3A
:1005800003B0BDE8F08F40462146F9E7001B61EB60
:100590000201001C41F5801300185B412018A2F5F0
:1005A000001747EB030140EAD570B6196D4111E021
:1005B0006D084FEA360645EAC0754FEA0752001B40
:1005C00061EB0201001C41F5801149084FEA30003F
:1005D0000019514132462B4603B0BDE8F04F00F000
:1005E00008BB0098012240000023D0EB020263EB1D
:1005F000E073009821464FEAE074B8EB000061EB2D
:100600000401E9E783F000435BE781F0004158E72C
:100610002DE9F041054621F000400C46284309D061
:10062000C4F30A5040F23341884205DD2846214692
:10063000BDE8F0812846FBE740F2FE31884210DC3D
:100640000CDB4FEA043040EA155050EA053105D082
:10065000104804F0004101430020E9E70020014672
:10066000E6E7A0F233404642C6F140022846214662
:1006700000F084F807468846284621463246FFF7B0
:1006800053FE43463A4600F0B4FA3246BDE8F04124
:1006900000F074B80000F03F30B5041E71F10004A2
:1006A00004DB4FF00044404264EB0101141E73F17F
:1006B000000405DB1C464FF00043524263EB040389
:1006C0008B4208BF824230BD30B5041E71F1000478
:1006D00004DB4FF00044404264EB0101141E73F14F
:1006E000000405DB1C464FF00043524263EB040359
:1006F000994208BF904230BD70B5044601F00045F4
:100700000020054304D14FF00045644265EB010130
:1007100003F00045284305D118464FF000435242EC
:1007200063EB0003101B73EB010002D24FF000409B
:1007300009E082EA040283EA01034FF000501A4301
:1007400001D14FF0C0404FEA2062EFF3008162F325
:100750001F6181F3008870BD064C074D06E0E0681C
:1007600040F0010394E8070098471034AC42F6D3F8
:10077000FFF736FDC8690008E8690008202A04DB95
:10078000203A00FA02F1002070479140C2F12003A4
:1007900020FA03F3194390407047202A06DBCB1759
:1007A000203A41FA02F043EAE07306E041FA02F32C
:1007B000D040C2F120029140084319467047000022
:1007C00000487047C061000810B50446FFF7F8FF05
:1007D0000068005D00F0010010BD00002DE9FF4F32
:1007E000087881B09946FF2805D0491C2D2804D0EF
:1007F0000024002308E000230BE00124F9E703EBC9
:10080000830300EB4303491C0878FF28F7D104B1A8
:100810005B4200200090147801462D2C01D02B2C37
:1008200004D1521C2D2C12D00024009400251678DF
:10083000FF2E0ED00A24A0FB04C801FB0481002770
:1008400000FB0711521C16EB0C006941EFE7012475
:10085000EBE7994450EA01020ED00024AA4D264647
:10086000DFF8A88200F011FB82468B46B9F1000048
:1008700009DAC9F100071BE001980021C0E9001165
:1008800005B0BDE8F08F074612E0F80707D0224612
:100890002B463046414600F017FA06468846224667
:1008A0002B461046194600F00FFA04460D467F10FD
:1008B000002FEAD1B9F1000F32464346504659465F
:1008C00002DA00F073FA01E000F0FEF9009A0AB1D2
:1008D00081F00041019AC2E90001D1E72DE9FF4F03
:1008E0001F468DB0D7E901464FF0FF382E20454610
:1008F0004FF000090B90B9696D1C0E988847396A52
:10090000824688470028F6D1BAF1FF3F0AD024F486
:10091000D064002E11DDBAF12B0F08D0BAF12D0FE3
:100920000BD102E0404611B0ABE744F48064B969F2
:100930006D1C0E9888478246761E6946600501D573
:100940002D2000E02B208DF8000001F1010B0DF1AE
:10095000200809E0B9696D1C0E98884782460F98F7
:1009600044F40074761E0560002E02DDBAF1300FEB
:10097000F0D00B998A453ED144F0800406E00F99EF
:10098000681CA9F1010944F400740860B9696D1C80
:10099000761E0E98884782463028F0D02BE00B99BF
:1009A0008A4505D1200603D444F08004761E18E061
:1009B000504603F0BFFE08B30DF11301761E44F458
:1009C00000748B4508D2AAF130000BF8010B200609
:1009D00007D5A9F1010003E0200602D409F10100C6
:1009E0008146A00502D50F99681C0860B9696D1C85
:1009F0000E9888478246002ED1DC53E0002E51DD50
:100A0000BAF1650F02D0BAF1450F4BD1A00549D517
:100A1000B9696D1C24F44074761E0E98884782468E
:100A2000002E0CDD2B2804D0BAF12D0F07D144F491
:100A30008074B9696D1C0E9888478246761EE00561
:100A400001D52D2100E02B2108F8011BCDF82C80C9
:100A500021E00DF12901761E44F4007488450CD282
:100A6000AAF1300010F0FF0088F8000002D10B99C5
:100A7000884509D908F1010806E0E00501D52448B8
:100A800001E042F20F708146B9696D1C0E988847EB
:100A900082460F980560002E04DD504603F04AFEA2
:100AA0000028D6D1F9690E988847FF208BF80000FE
:100AB00088F800000020069007904B466A4608A977
:100AC00006A8FFF78BFEA00502D46FF001002AE70D
:100AD00014F0240F0AD0E00714D1DDE906123868BB
:100AE000031D3B600068C0E900120BE0DDE9060170
:100AF000FFF7FEFB0146E00704D13868021D3A60AB
:100B00000068016028460EE7000024400000F03F26
:100B1000F1D8FFFF426842B1016811F8013B23B1EF
:100B2000521EC0E90012184670470121C160881E9C
:100B3000704742685AB1C368016843B983688B4201
:100B400005D0491E521CC0E90012002070474FF02A
:100B5000FF3070472DE9F05F824600780027154688
:100B60008B460AF10104B946302801D09DB113E04B
:100B700014F8010B0127782803D0582801D045B17B
:100B80000AE00DB1102D07D10027102514F8010B34
:100B900002E0082500E00A250026B0460EE005FB2D
:100BA000080005FB06F1012701EB10461FFA80F84B
:100BB000B6F5803F00D3B94614F8010B294600F082
:100BC00075F80028EBDABBF1000F05D00FB1641EF9
:100BD00000E05446CBF80040B9F1000F06D003F016
:100BE000A1FC02210160C81EBDE8F09F48EA064052
:100BF000FAE710B5141E73F1000408DA401C41F145
:100C0000000192185B411A4301D120F0010010BD90
:100C10002DE9F04D92469B4611B1B1FA81F202E006
:100C2000B0FA80F220329046FFF7A8FD04460F4646
:100C300040EA0A0041EA0B0153465A46084313D0E2
:100C4000114653EA010019D0C8F140025046FFF79F
:100C50006BFB05460E46504659464246FFF78EFD51
:100C6000084305D0012004E020463946BDE8F08D58
:100C70000020054346EAE0762C4337430A98630593
:100C8000E40AA0EB08000022FD0A44EA47540A30B7
:100C900002D500200146E9E7010510196941DDE9A7
:100CA000084500196941BDE8F04DA2E73A2800D295
:100CB000303820F02002412A01D3A2F137008842C7
:100CC00001D34FF0FF3070472DE9FE4F81EA030456
:100CD00004F0004421F0004100944FF0000B23F099
:100CE000004350EA01045ED052EA03045BD0C3F330
:100CF0000A54C1F30A552C44A4F2F3340194A0FB26
:100D00000254C1F3130141F48011C3F3130343F4FC
:100D1000801301FB024400FB034E840A970A44EA55
:100D2000815447EA8357A4FB076802958D0A05FBA7
:100D300007854FEA932C04FB0C542705029D4FEACC
:100D4000065847EA1637B5EB08056EEB070C870E19
:100D5000920E47EA811742EA8312A7FB0201B6EB23
:100D60000B0164EB00042B0D43EA0C335E1844EBDB
:100D70001C50DA465146E7FB0201C5F313044FEA63
:100D80000B3343EA14534FEA0432019C43EA06034F
:100D9000A4F10C040294009CCDE900B4FFF738FFE5
:100DA00003B0BDE8F08F00200146F9E72DE9F04DD2
:100DB00081EA030404F0004B21F0004514464FF093
:100DC000000A23F0004150EA050220D054EA010253
:100DD0001DD0C5F30A570246C5F31303C1F3130030
:100DE000C1F30A5640F4801543F48013A7EB0608BC
:100DF000101BD64608F2FD3873EB050002D308F14C
:100E0000010801E092185B41B8F1000F03DA0020FD
:100E10000146BDE8F08D00204FF48011064684465F
:100E20000EE0171B73EB050705D3121B63EB0503DD
:100E300006434CEA010C49084FEA300092185B4126
:100E400050EA0107EDD152EA030012D082EA040011
:100E500083EA0501084305D0101BAB4106D20122ED
:100E6000002306E000224FF0004302E06FF0010291
:100E700053101AEB06004CEB085110EB0A0041EB43
:100E80000B01BDE8F04DFFF7B4BE0EB540F23342A2
:100E900002920022CDE900221346FFF7B9FE03B00B
:100EA00000BD000010B5294CA06820F03F0020F0E4
:100EB000004040F00400A0609FED250A01F0BAF95F
:100EC000206C254A81B223484FF0A04481801268EB
:100ED000224B92B202801B68DFED210A9BB2438055
:100EE000D0F82CC0ACEB020200EE102AB8EEC00A1B
:100EF00020EE200A80ED030A026BB1EE400AD21AFE
:100F000001EE102AB8EEC11A61EE200A9FED161A02
:100F1000C0ED040A30EE600ADFED120A80ED050A2A
:100F200090ED020A60EE200A00EE101AB8EE400AB8
:100F300020EE010A9FED0D1A40EE010AC0ED020AF3
:100F400002F022F84020206010BD00000001005097
:100F5000ACC52738E003002080000050800100501D
:100F6000500AA53C6666663FCDCCCC3D7BDC7A3C26
:100F700010B503F027FA02490020487010BD0000A8
:100F8000F4000020F0B5814D04462DED028B81B0B8
:100F90006878002802BF01B0BDEC028BF0BDA868E4
:100FA00002F008FF05282BD302F00AFFA8606A7838
:100FB00000267748012A27D09FED768A7649774F19
:100FC000022A4ED0032A7DD0042A19D10020D7F856
:100FD00000305202F6EE000A03EB8001401C91ED56
:100FE000000A521E20EE200A81ED000AF4D14FF4CF
:100FF00000606860012028701B2001F0D9FE6E702F
:1010000001B0BDEC028BF0BD90ED040A6449FDEE29
:10101000C00AF8EEE00A30EE600A10EE100ADFEDCA
:10102000610A8842C4BF94ED000A30EE600A09DC10
:1010300010EE100A5C49884284BF94ED000A30EE3D
:10104000200A05D984ED000A01B0BDEC028BF0BD89
:10105000D4ED000A022030EEC00A84ED000A6E6072
:101060004BE094ED000AD0ED040A30EE600AD1EDB9
:101070004B0AB0EEC00AB4EEE00AF1EE10FA22BF5D
:1010800001B0BDEC028BF0BD90ED070AD1ED4C0A2A
:10109000B0EEC00AB4EEE00AF1EE10FAD4D200F0DD
:1010A0007FFC38686A6800EB820080ED000A10EE71
:1010B000100A8DF80000010A8DF80110010C8DF85E
:1010C000021000E01BE0000E8DF803006946104698
:1010D00001F0D2F994ED000A30EE080A84ED000A1E
:1010E0006868401C6860B0F5006FADDB401E30EEF4
:1010F000480A6860032084ED000A6870A4E794ED54
:10110000000AD0ED040A30EE600AD1ED4B0AB0EED1
:10111000C00AB4EEE00AF1EE10FA95D290ED070A9B
:10112000D1ED4C0AB0EEC00AB4EEE00AF1EE10FACE
:101130008AD200F035FC38686A6800EB8200D0ED96
:10114000000A30EE200A80ED000A10EE100A8DF839
:101150000000010A8DF80110010C8DF80210000E3C
:101160008DF8030042F210706946104401F084F9D2
:1011700094ED000A30EE480A84ED000A6868401ECB
:10118000686044BF042068705EE70000F40000203F
:101190001C0300200000003A200100200000002075
:1011A0006F12833A6F12833A6F1283BA10B5044CF0
:1011B0000020207003F006F90120607010BD0000CF
:1011C000F400002001F002B970B5094C002525702B
:1011D000606802F0C7FA656003F046F8054C002825
:1011E00002BF0120207070BD03F0ECF8257070BDC7
:1011F000C0000020F40000202DE9F04FFA4A2DED48
:10120000028B85B0916800EE101AB8EE400ADFED4F
:10121000F70A127820EE208A112A80F08283DFE814
:1012200002F0FD091750748FBFFCFBFAF9F8F7F6CE
:10123000F5F4F300EC4C00209FEDED0AA06004F102
:10124000240080ED000A01F051FC022000F0B1BA48
:10125000E849D0ED050AE84A91ED480A30EE600A07
:10126000D2ED000A9FEDE51A40EE010AC2ED000A38
:1012700091ED490AF4EEC00AF1EE10FA06DCB1EE87
:10128000400AF4EEC00AF1EE10FA07D201F040FD78
:10129000D54801214170102100F0FFB890ED020AFD
:1012A000DFEDD71A9FEDD21A03F04CFACE4CD54998
:1012B000A068814200F2358301F02AFD032000F08E
:1012C00078BACD4890ED000ACA48D0ED480A80EEC1
:1012D000201A9FEDCD0A21EE000A80ED010A10EEE2
:1012E000100A8DF80800010A8DF80910010C8DF81C
:1012F0000A10000E8DF80B0002A9012001F0E6F89B
:10130000B9490420087000F00CBBB74C0020A06065
:101310002061B84890ED490A04F12400F1EE400A3A
:10132000C0ED000A80ED010A9FEDB10A083080EDA2
:10133000000A80ED010A01F0D9FB052000F039BA5E
:10134000A94C0329C0F0ED820021A160217C04F1A9
:101350002C0201F0010102EB8102D0ED050A92EDB1
:10136000000A30EE200A82ED000A04F1240202EBAA
:10137000810190ED020AD1ED000ADFEDA11A9FED87
:101380009C1A03F0DFF9206942F21071401C2061C1
:101390008842C0F2C68201F0BBFC062000F009BA08
:1013A0009A4890ED000AD0ED010A70EE600A9FEDB8
:1013B000981A904C80EE810A94ED491AC1EE000A09
:1013C0009FED910A20EE800A10EE100A84ED020AC9
:1013D0008DF80C00010A8DF80D10010C8DF80E101F
:1013E000000E8DF80F0003A9022001F06FF8D4ED74
:1013F000020AD4ED011A94ED5E0A81EEA01AB8EE4D
:10140000C00A20EE200A0AE06BE2D4E16AE105E1BD
:10141000C9E0AFE062E043E01FE00BE03CE261EED8
:10142000000A714984ED5C0AC4ED5D0A072008706A
:1014300000F077BA6C4C0020A0606E4890ED480A2E
:10144000D0ED010A04F1240020EE200A80ED000A0C
:1014500001F04CFB082000F0ACB96749F6EE000A39
:1014600091ED000A20EE080A60EE200A90ED020AD3
:101470009FED5F1AF0EE411A03F064F918EE100ABE
:10148000B0F1804FC0F24D826248002190ED040A15
:10149000554880ED070A81600921017000F041BACA
:1014A000B2EE040A544968EE001A90ED020AD1ED3A
:1014B000000A9FED4F1A03F045F918EE100A56493D
:1014C0008842C0F22E825348474C90ED040A84EDC6
:1014D000080A01F01DFC0A2000F06BB9424DB0EE85
:1014E000001AD5ED088A95ED078A38EEC80AF0EEA5
:1014F000C00A81EE200A10EE100AFEF7E6FE41EC6B
:10150000100B03F06DF851EC100BFEF7BFFE394CD9
:101510001428206003DD02206870102027E0F4EE1C
:10152000C88AF1EE10FACCBF0021012161618DF86B
:101530000000010A8DF80110010C8DF80210000E58
:101540008DF803006946032000F0C0FF60698DF844
:101550000000010A8DF80110010C8DF80210000E38
:101560008DF803006946042000F0B0FF0B202870BE
:1015700000F0D7B91C4C00209FED1D0A206184EDBE
:10158000050A84ED060AA0601A4890ED480AD0EDDD
:10159000010A04F1240020EE200A80ED000A01F087
:1015A000A5FA0C2005E11449F6EE000AA1F1240485
:1015B00091ED000AD4ED061A9FED0D1A20EE080AEF
:1015C00060EE200A90ED020A03F0BCF818EE100A53
:1015D000B0F1804FC0F2A5810020A0600D480088C6
:1015E000E0600D20E5E00000C0000020ACC5273819
:1015F0000000000020010020E400002017B751394E
:10160000920A8640F8240100ABAA2A3FEC00002091
:10161000CCCC4C3E1C0300207CD9A03FC74C94EDA1
:10162000060ADFEDC70A5FED0E8A04F1240170EEB1
:10163000201AB0EE681AC4ED061AD1ED000A90ED3A
:10164000020A03F07FF894ED050AB4EEC08AF1EEC9
:1016500010FA2EDDD4ED060A9FEDBA1ABA4920EE33
:10166000811AD1ED000AF8EEE00ADFEDB81AB84AA7
:10167000636860EEA10A1288C1EE201AFDEEE10A4D
:1016800010EE900A101AC20FC2EB82320244206997
:1016900043F82020DFEDAF0A4FF0FF3230EE200A92
:1016A00084ED050A096802EBC1118842DCBF401CC9
:1016B0002061A54890ED000AB8EEC00ADFEDA30A4C
:1016C000B2EE041A60EE200A80EE810AB4EEC80A77
:1016D000F1EE10FA00F22581C4ED058A0020A06029
:1016E0000E2066E0954C94ED060ADFED950A04F1B4
:1016F000240170EE601AC4ED061AD1ED000A90EDD7
:10170000020A1FED451A03F01DF8D4ED050AB4EEE8
:10171000E08AF1EE10FAC4BF206900282CDD94EDB8
:10172000060A9FED881A884920EE011A91ED000AF9
:10173000B8EEC00ADFED851A854A20EE210A12882C
:10174000C1EE001ABDEEE10A10EE101A511ACA0FCE
:10175000C2EB82321144626852F82030194401EB26
:10176000D171491042F82010401E9FED7A0A206185
:1017700030EE800A84ED050A734890ED000AB8EE59
:10178000C00ADFED720AB2EE041A60EE200A80EEA3
:10179000810AB4EEC80AF1EE10FA7DD86C48E1680F
:1017A0000088084400EBD0704010E06001F0B0FA0F
:1017B0000F202070B5E0644E4FF0FF3B0020D6F8BC
:1017C00000C00BEBCC13002B0DDD5C48002559103D
:1017D0004068D0E9004705D03C44F0E902271544B1
:1017E000491EF9D16019002B04DB5449496851F8AE
:1017F000231008444FEACC1190FBF1F0B0618DF852
:101800000400010A8DF80510010C8DF80610000E79
:101810008DF8070001A9052000F058FE474843F65F
:10182000FF72C168C90191FBF2FAC0F80CA0D0F8B0
:1018300004800023D6F800C000210CFB03F08024B4
:10184000C001C5170A4600EB55650BEBCC17CCF170
:10185000000900BF02EBE510403848BF00EBCC1098
:1018600003D48742B8BF00EBC91058F82000521CBF
:101870000144641EEED1C81701EB5060C1110AEBA0
:1018800003007F28C8BF8038328B06EB4000891ADE
:101890005B1C8183802B00E043E0CBDB5FF0000426
:1018A00006EB4400B0F91C008DF80400010A8DF825
:1018B0000510010C8DF80610000E8DF8070001A927
:1018C00004F10A0000F002FE0A2002F01BFA641C78
:1018D000802CE5DB0120C6F81C011B2001F068FA12
:1018E0001FE0164C60788DF81000010A8DF8111079
:1018F000010C8DF81210000E8DF8130004A94FF0A2
:10190000FF3000F0E3FD00252570606801F02AFF3C
:10191000656002F0A9FC68B102F054FD0E48057044
:10192000257006488168491C816005B0BDEC028BBA
:10193000BDE8F08F084901200870F1E7C0000020E1
:1019400017B7D13900FC7F4620010020DB0FC940CA
:101950001C0300207CD9A03BF400002070B50C4D86
:101960000024286820B10B490C7001F0FBFE2C60AC
:10197000094D686820B94FF4205001F03BFF6860C2
:1019800006484461C0F81C410120287070BD000069
:1019900000000020F4000020C000002020010020F2
:1019A000014890ED060A70477C0000200748D0F8F7
:1019B0003411042906BFD0F83801022870470448C2
:1019C000044980ED000A01200870704720010020C2
:1019D000140400207C00002019499FED1A0A1B4ABC
:1019E000D1ED040A0121C0ED000A80ED010A80ED6D
:1019F000020A1548C0ED010A80ED020A80ED030AD3
:101A00001175134980ED060A41F66A02D1F84411B6
:101A10009142BABF00EE101AB8EEC00A9FED0D0A4F
:101A2000F0EE000A20EE200AF5EE000A80ED050A2D
:101A300020EE000A20EE200A80ED040A7047000024
:101A40001C030020000000007C0000202004002077
:101A5000200100200050C3452DE9F041DFF8F0825D
:101A6000BC4CBA4D0F462DED028B294698ED013A3C
:101A700094ED021AD5F8340198ED000A73EE411A7C
:101A8000D8ED022A91ED032ADFEDB38A9FEDB38AE8
:101A9000D4ED010A05285CD2DFE800F0030A315CCE
:101AA000730084ED010A84ED023AC4ED032AAAE032
:101AB00095ED4F0AD4ED031A20EE280A72EEE10AE2
:101AC000B0EEC01AB1EE410AF4EEC00AF1EE10FA1F
:101AD000CCBFB0EE602AB0EE402AB4EEC12AF1EEDF
:101AE00010FAC8BFB0EE410A06DCF4EEC00AF1EE0F
:101AF00010FAC8BFB0EE600A31EE800A27E095ED1B
:101B0000500A20EE280AF0EEC00AB1EE600AF4EEA8
:101B1000C01AF1EE10FACCBFF0EE612AF0EE402AC6
:101B2000F4EEE02AF1EE10FAC8BFF0EE601A06DC1F
:101B3000F4EEC01AF1EE10FAD8BFF0EE401A31EE12
:101B4000210A84ED020A81EEA80A20EE020A84ED41
:101B5000030A58E030EE600AD4ED042A22EE800A2F
:101B6000D4ED052A02EEA10A00EE281A62EE001A50
:101B7000C4ED031A84ED021A41EE280AC4ED010AED
:101B800041E02078764E68B1D5ED542A95ED532A80
:101B9000D5ED521A02F044FA86ED048A0020307521
:101BA000207001E0307D70BB96ED040AD6ED030A8B
:101BB000B4EEE00AF1EE10FA0DDD0220C5F83801AE
:101BC00098ED000A012084ED010A84ED028A84ED7B
:101BD000038A307517E002F0B5F996ED000A84ED3E
:101BE000010A96ED010A84ED020A96ED020AD5ED8E
:101BF000030A20EE200A84ED030A96ED040A30EE73
:101C0000280A86ED040AD5F8381194ED020A5548E1
:101C1000F7EE001A022917DBD0ED040A94ED011A41
:101C2000D5F8542171EE600A95ED571A01EE200A9D
:101C3000F0EEE00A42B195ED561AB4EEE01AF1EE7C
:101C400010FA01DBC0EE811A95ED5A1AF1EE410A45
:101C5000F4EEC00AF1EE10FA34BFB0EE402AB0EE56
:101C6000602AB4EEC21AF1EE10FA38BFB0EE410AA3
:101C700006D3F4EEC00AF1EE10FA28BFB0EE600A07
:101C800094ED031AF0EE480A01290DDBD0ED070AA6
:101C900070EE600A95ED580A20EE210A00EE201A37
:101CA00094ED060A31EE001A95ED042AD5F82821A4
:101CB00081EE020A8AB12C4A127872B1406843F66A
:101CC000FF72C0EBC02090FBF2F0284A126802EBD2
:101CD000800090ED001A31EE000A95ED5B1A0020AD
:101CE000B4EEC01AF1EE10FA3CBF0120B0EE410A8A
:101CF000B1EE411AB4EEC01AF1EE10FAC4BF0120E1
:101D0000B0EE410A0129B8BF84ED068A15DB40B167
:101D1000D4ED060A9FED161A60EE810AC4ED060A9C
:101D20000BE095ED591A21EE211A61EE281A94ED77
:101D3000061A01EEA01A84ED061A002F18BF87EDCF
:101D4000000ABDEC028BBDE8F081000020010020FC
:101D5000140400207C000020ACC5273800000000DF
:101D6000200400201C030020F400002000000020BC
:101D7000A4707D3F00B54FF4805000F0D5F840F0DE
:101D800004014FF480505DF804EB00F089B900B510
:101D90004FF4805000F0C8F820F004014FF4805058
:101DA0005DF804EB00F07CB970B5002000F0BCF8E1
:101DB00004460A2001F0D6FF4FF4006000F0B4F8AA
:101DC00005460A2001F0CEFFC4F30A00C5F30A015C
:101DD00001EAC02070BD00002DE9F04192B000245E
:101DE0000694079408940A94474809940B940C9419
:101DF0000D940F940E940194029403940594016E33
:101E000041F480510166016E01F480511091C16C62
:101E100041F00101C164C16C01F001011091C16C7C
:101E200041F00401C164C06C102600F004000125DB
:101E30001090694600960495344801F0FBFD4FF080
:101E400090470820B8620090CDE901540394694698
:101E50003846049401F0EEFDBE610096CDE90154D0
:101E6000039469463846049401F0E4FD4FF02008DD
:101E70000226CDF80080CDE901640527CDE90447AD
:101E800069464FF09040039401F0D4FD402000904B
:101E9000CDE90164CDE9044769464FF090400394D1
:101EA00001F0C8FD80200090CDE90164CDE9044730
:101EB00069464FF09040039401F0BCFD4FF48270EE
:101EC000CDE906404FF47060CDE908046802CDE921
:101ED0000A500720CDE90C84CDE90E400C4C06A930
:101EE000204601F04BFE606820F0100060606068E2
:101EF00020F008006060206840F04000206000F0A2
:101F00005BF812B0BDE8F081001002400008004804
:101F1000003001400348006810F0100F14BF00208B
:101F2000012070471008004838B440F400434BF6D5
:101F3000EF604FF0904C1020CCF828000020ADF856
:101F400000001C486C46816842F2107211F0020FCA
:101F500008BF012107D102E0491C914203D88568DE
:101F600015F0020FF8D0C360816811F0800F18BF20
:101F7000012106D0836813F0800F02D0491C9142E2
:101F8000F8D9816811F0010F08BF012107D102E0E3
:101F9000491C914203D8836813F0010FF8D0C06840
:101FA00020801020CCF81800BDF8000038BCC0F329
:101FB0000A007047003001402DE9F0414FF0904495
:101FC0000820A062022001F09DFE142001F0CAFE4C
:101FD0000820A061022001F095FE1C214FF4405022
:101FE00000F05EF8642001F0BDFE25214FF4805022
:101FF00000F056F8642001F0B5FE40F2DE342146D0
:102000004FF4C05000F04CF8642001F0ABFE40F2F9
:10201000CE7529464FF4005000F042F8642001F0DC
:10202000A1FE40F2C32631464FF4405000F038F88C
:10203000642001F097FE40F27F1739464FF420509C
:1020400000F02EF8642001F08DFE4FF48050FFF771
:102050006BFF242817D14FF4C050FFF765FFA04253
:1020600011D14FF40050FFF75FFFA8420BD14FF49E
:102070004050FFF759FFB04205D14FF42050FFF711
:1020800053FFB84203D04FF0FF30BDE8F081034862
:1020900000F066FE0020BDE8F0810000E0030020B3
:1020A00038B4C1F30A0141EA00054BF6EF604FF086
:1020B00090441020A0620020ADF800001A48EC46C1
:1020C000816842F2107311F0020F08BF012107D19D
:1020D00002E0491C994203D8826812F0020FF8D03E
:1020E000C560816811F0800F18BF012106D0826899
:1020F00012F0800F02D0491C9942F8D9816811F082
:10210000010F08BF012107D102E0491C994203D801
:10211000826812F0010FF8D0C068ACF800001020FF
:10212000A06138BC704700000030014070470000DB
:102130002DE9F04192B000240794089409940A9480
:10214000384806940C940D940E940F940B940294BA
:10215000039404940594816D41F480418165816DFF
:1021600001F480411091C16C41F00201C164C06C66
:102170002D4F00F0020010904FF48050B8614FF0E6
:102180000108CDE900086946384601F053FC4FF4D8
:10219000005000900225CDE901540526CDE9044602
:1021A00069463846039401F045FC68030090CDE988
:1021B0000154CDE9044669463846039401F03AFCDF
:1021C000A8030090CDE90154CDE90446694638469C
:1021D000039401F02FFC4FF48270CDE906404FF4D8
:1021E0007060CDE908052802CDE90A801020CDE90C
:1021F0000C040720CDE90E400C4D06A9284601F03D
:10220000BDFC686820F010006860686820F0080075
:102210006860286840F0400028600548C46012B03B
:10222000BDE8F08100100240000400480038004082
:102230001C03002070B5604D604C28462DED028BCC
:10224000B0EE408AD5F81C11406943F6FF7651B3D1
:1022500018B101F0CFFC301A01E001F0CBFC208076
:1022600080B2012202EBD012C10902F07F0205EB1D
:10227000410105EB4202B1F91C10B2F91C2020F01B
:102280007F03C31A521A5A4301EBE211401AB0F508
:10229000804FA4BFA0F57C50FF3802DA0028B8BFF9
:1022A0003044606009E018B101F0A4FC301A01E08C
:1022B00001F0A0FC208080B26060A168411AB1F5F5
:1022C000005FA4BFE168491E05DA11F5005FDCBFBD
:1022D000E168491C00DCE16000EE100AA060DFED5F
:1022E000391AF8EEC00A9FED360A80EE801AD4ED56
:1022F000030AF8EEE00A31EE202A84ED042AA969E7
:10230000401A00EE900AB8EEE01AD5ED000AF8EE99
:10231000E00A21EE201AC1EE000ABDEEE00AB8EE96
:10232000C00A30EEC00A60EE210AC4ED060AF5EEDE
:10233000C00AF1EE10FA3CBF30EEA10A84ED060AA5
:1023400094ED050A84ED052A1C4A32EE400A02F19A
:10235000C00104F1BC0080EE081A94ED2F0A82ED52
:10236000300A132230EE010A50ED010A41ED010A54
:1023700030EE800A50ED020A083841ED020A51EDB4
:10238000020A0839521E30EE800AEDD184ED091A96
:102390009FED0D1AC0EE010AC4ED070A95ED000A83
:1023A00060EEA10AB8EEC00A20EE800A84ED080AA9
:1023B000BDEC028B70BD0000200100201C0300203A
:1023C00000FC7F46DB0FC9400000204272B600F0DF
:1023D0009FFCFEE70D480068016D426D01F00701AA
:1023E000114008BF704710B501654021074800F053
:1023F0009BFF002808BF10BD00F0B6F8402103483D
:1024000000F092FF0028F7D110BD0000B8020020B4
:10241000184810B516490160002141608160C16013
:102420000174417481742222426101220323C0E9B4
:102430000623026242628262C262C0E90C218163A9
:10244000C16301F011F800281CBF4FF0FF3010BD30
:10245000084801F071F901221146064800F04EFFCC
:1024600000220121034800F053FE002010BD0000AF
:1024700000640040B802002000B5134A83B092F80F
:1024800088218DF8000002F00F0242F09003020A4A
:102490008DF80120020C8DF80220000E8DF803004B
:1024A00008788DF8040048788DF8050088788DF854
:1024B0000600C8788DF8070008226946184602F021
:1024C000BBF903B000BD00002001002000B5134A95
:1024D00083B092F888218DF8000002F00F0242F0DC
:1024E0006003020A8DF80120020C8DF80220000E14
:1024F0008DF8030008788DF8040048788DF8050001
:1025000088788DF80600C8788DF80700082269469B
:10251000184602F091F903B000BD00002001002030
:1025200008B50C49042291F888118DF8000001F0DB
:102530000F0141F02003010A8DF80110010C8DF804
:102540000210000E8DF803006946184602F074F977
:1025500008BD00002001002010B501F031FC014948
:10256000086010BD10000020F0B58DB06B4602AAC7
:102570004021D84800F0E2FED74C029ED74D3709E3
:1025800006F00F002661C4E90570D5F88811814274
:102590001EBF00280DB0F0BDD5F88C0110B101F0C0
:1025A0000FFC2060192F24BF0DB0F0BDDFE807F04D
:1025B0008F0D2D2F44652D8F7A2D8FA4AEB9C4CFEA
:1025C000E3FDFCFBFAF9F8F7F6006D2000F0F0FBF4
:1025D0008DF80000010A8DF80110010C8DF8021031
:1025E000000E8DF80300BE48082200698DF8040033
:1025F000010A8DF80510010C8DF80610000E8DF8FB
:1026000007006946304602F017F90DB0F0BD7A2098
:1026100000F0CEFB8DF80000010A8DF80110010CCE
:102620008DF80210000E8DF8030004226946304632
:1026300002F002F90DB0F0BD00F0B4FB8DF800001F
:10264000010A8DF80110010C8DF80210000E8DF8B2
:10265000030000F0A1FB8DF80400010A8DF80510BD
:10266000010C8DF80610000E8DF80700082269464F
:10267000304602F0E1F80DB0F0BD632000F098FBA9
:102680008DF80000010A8DF80110010C8DF8021080
:10269000000E8DF8030004226946304602F0CCF8A3
:1026A0000DB0F0BD612000F083FB8DF80000010A41
:1026B0008DF80110010C8DF80210000E8DF803004A
:1026C00004226946304602F0B7F80DB0F0BD1B2079
:1026D00000F06EFB8DF80000010A8DF80110010C6E
:1026E0008DF80210000E8DF8030004226946304672
:1026F00002F0A2F80DB0F0BDD5F89001002804BF9B
:102700000DB0F0BD03F0DCFA0DB0F0BD9DED000A98
:1027100084ED010AD5F8900100281CBF0DB0F0BD72
:10272000F0E79DED000A84ED020AD5F8900100283B
:102730001CBF0DB0F0BDE5E79DED000A84ED030A76
:10274000D5F8900100281CBF0DB0F0BDDAE7644851
:10275000042200698DF80000010A8DF80110010CB7
:102760008DF80210000E8DF803006946304602F025
:1027700063F80DB0F0BD5A480422C0698DF800001E
:10278000010A8DF80110010C8DF80210000E8DF871
:1027900003006946304602F04FF807E081E06CE044
:1027A00065E05EE04AE036E022E001E00DB0F0BD19
:1027B0004C48D5ED040A042290ED070A694620EE44
:1027C000200A10EE100A8DF8000010EE100A000A20
:1027D0008DF8010010EE100A000C8DF8020010EECA
:1027E000100A000E8DF80300304602F025F8D4E7F9
:1027F0003C480422C0698DF80000010A8DF80110E0
:10280000010C8DF80210000E8DF803006946304669
:1028100002F012F8C1E73348042280688DF8000006
:10282000010A8DF80110010C8DF80210000E8DF8D0
:1028300003006946304601F0FFFFAEE72948042255
:10284000006A8DF80000010A8DF80110010C8DF866
:102850000210000E8DF803006946304601F0ECFFCF
:102860009BE701226946304602F000F895E7002216
:102870006946304601F0FAFF8FE7752000F098FABC
:102880008DF80000010A8DF80110010C8DF802107E
:10289000000E8DF8030004226946304601F0CCFF9B
:1028A0007BE700208DF800008DF801008DF8020014
:1028B0008DF8030002208DF8040000218DF805102A
:1028C0008DF806108DF8071008226946304601F091
:1028D000B3FF62E7B80200201000002020010020B2
:1028E0001C030020E003002010B50A4CD4F88C0132
:1028F000002808BF10BD0848006801F05BFAD4F852
:102900008C11884298BF10BD1B20BDE8104000F01C
:102910004FBA000020010020100000202DE9F05FD8
:102920000D46044602F04CFC002818BFBDE8F09F9D
:10293000494B196811F4007F196810D021F4007117
:102940001960196811F4806F08BF4FF0010C12D0A4
:10295000196821F4806119604FF0030C0BE011F449
:10296000806F08BF4FF0000C05D0196821F480611A
:1029700019604FF0020C6619A64246D9374D4FF048
:10298000FF3A4CF2FA376FF001084FF0010B4FF0AD
:1029900000095869E1B220F4FC7040EAC1005861B6
:1029A000586940F002005861586940F4803058611D
:1029B000186910F4803F1CBF012128460ED009E0A1
:1029C000491C814206D95046596921F4FD7159616B
:1029D000D8B917E01A6912F4803FF1D1186938406C
:1029E00008D0002109B199699961002818BF1861C0
:1029F0004046E9E7186910F0010F18BFC3F810B09E
:102A00004846E1E7641CA642C3D8BCF1010F18BFD9
:102A1000BCF1030F0BD1196841F40061196019680A
:102A200021F400611960196841F400711960BCF16A
:102A3000020F1CBFBCF1030FBDE8F09F196841F401
:102A400080511960196821F480511960196841F4A6
:102A500080611960BDE8F09F0020024040420F00F5
:102A600006494FF0FF304A6942F000424A61496925
:102A700011F0004F18BF00207047000000200240F6
:102A80002DE9F04116461F46054602F099FB002845
:102A900018BFBDE8F081084C606940F0010060613A
:102AA0002E60BFF36F8F6F6002F08AFB616921F0C7
:102AB00001016161BDE8F081002002400849002069
:102AC0004A6912F0004F08BF7047064A8A60064AFA
:102AD0008A60496911F0004F18BF4FF0FF3070470E
:102AE0000020024023016745AB89EFCD10B5EFF31D
:102AF000108472B601F0E2F8FFF749F902490120AB
:102B0000087084F3108810BD2C00002030B50446F6
:102B10002DED088BF0EE609AB0EE40AA83B0B0EED7
:102B2000619AD0ED040A90ED050A90ED038A30EE2B
:102B3000C00ADFED6D0AB0EE41BA60EE208AB0EE59
:102B40004B0A02F0B9FBF0EE401AB0EE4B0AF0EE81
:102B500061AA02F0F3FB68EE2A0A28EEAA1A48EEF0
:102B6000800A08EE401A94ED060ADFED601A20EEA6
:102B7000212A9FED5F0A5F4D3AEE60AA00EE802A9F
:102B800079EEC19A84ED062A94ED072A62EE211AA5
:102B900041EE001AC4ED071A95ED5C0A94ED091A8E
:102BA000D4ED0A0A00EE0A1A40EE290A94ED020A50
:102BB000DFED511AB7EE002A60EE211A82EE210AEB
:102BC00060EE018A20EE208A68EEA80A48EE080A24
:102BD000B1EEE00AB4EE400AF1EE10FA1CBFB0EE1E
:102BE000600A01F06DFD9FED451AC1EE000A10EE7E
:102BF000900AB0F17E5F12DA68EEA08A28EE208A91
:102C0000D4ED090A9FED3E0A60EE800AC4ED090A80
:102C1000D4ED0A0A20EE800A84ED0A0A15E095ED4B
:102C20005D1A9FED380AD4ED090A21EE001A4AEE2A
:102C3000010AC4ED090A95ED5D1AD4ED0A0A21EEE8
:102C4000000A49EE800AC4ED0A0A94ED060AD4EDA2
:102C5000070AF0EE499A20EE280A08EE200A84EDD1
:102C6000080AB0EE690A02F027FBB0EE409AB0EE17
:102C7000690A02F063FB28EE891AF0EE400A02AA04
:102C800001A908EE601A68EEA00A684648EE090A33
:102C9000B0EE410A02F03CFFDDED000A9FED1A0A9A
:102CA0001A4960EE800AFCEEE00A10EE900A80B24B
:102CB0000860DDED010A091F60EE800AFCEEE00A03
:102CC00010EE900A80B20860DDED020A091F20EEC6
:102CD000800ABCEEC00A10EE100A80B2086003B091
:102CE000BDEC088B30BD00003ACD133F3333733F4A
:102CF000CDCC4C3D20010020ABAA2A3FAC5C313F3B
:102D0000A4707D3FACC52738008054453C2C014061
:102D100010B5EFF3108472B6FFF72CF800F0BAFF8D
:102D200002490020087084F3108810BD2C00002098
:102D3000094A40F2A4611160121F1160121F116054
:102D40009FED060A80ED060A80ED070A80ED090A6C
:102D500080ED0A0A704700003C2C01400000000092
:102D60002DE9F0410026044635464FF47A77B04607
:102D7000642000F0F7FF208808F10108064460880D
:102D8000B8450544F4DB96FBF7F0E06295FBF7F0FD
:102D90002063BDE8F0810000014800687047000032
:102DA0003000002001480078704700003800002003
:102DB00070B500256C4902462C461B280AD06B488A
:102DC0000E78D0E94D3C062E47D2DFE806F05708D2
:102DD000505757AF0120487020468C7070BD634833
:102DE000634E6D2AD0F81C010ED006DC612A18D083
:102DF000632A10D0652A35D040E0732A2ED0752A78
:102E00001BD07A2A20D039E032687ABB70B3022016
:102E100048708C709DE0306840BB032048708C7017
:102E200097E0326812BB08B3002B08BFBCF1020F59
:102E300024D1042048708C708BE001F091FA044694
:102E400001F052FA051984E0FFF7B6F8EFF31080AD
:102E500072B63460746080F310887AE005204870A0
:102E60008C7076E0062048708C7072E006E0414875
:102E7000712A06D0772A29D06D2A6AD04FF0FF3503
:102E800067E03C499FED3C0A052BD1ED020AD1EDEC
:102E9000011A30EE801AF6EE000A71EEA00AD1EDAA
:102EA000001A31EE800A54D2DFE803F003323538DD
:102EB0000D00BCF1000F2BD0BCF1010F2BD0BCF1E9
:102EC000020F2BD045E09FED2D0A2CE029499FED04
:102ED0002A0A052BD1ED020AD1ED011A30EEC01AF3
:102EE000F6EE000A71EEE00AD1ED001A31EEC00AEA
:102EF0002FD2DFE803F0030D10131600BCF1000F12
:102F000006D0BCF1010F06D0BCF1020F06D020E0C4
:102F100080ED021A1DE0C0ED010A1AE080ED000A02
:102F200017E09FED170AFEF741FD12E00D2A12D0BF
:102F30000D48082A90F8430010D0124BC25491F863
:102F40004300401CC0B281F84300402828BF81F8EC
:102F50004340284670BD02F031FAFAE700281CBF52
:102F6000401E81F84300F4E73800002020010020D3
:102F700030000020140400200AD7233C0000C8427F
:102F8000000000003B0000202DE9F843584D0126C9
:102F9000002769782878814240D0072816D2DFE8D8
:102FA00000F00413070A0F131300FFF7D5FA0BE024
:102FB000FFF7AEFE08E0FFF7ABFEFEF705F903E012
:102FC000FFF7A6FEFDF7D4FFAE7001E0A87828B3A6
:102FD00068782870062821D2DFE800F02020030C52
:102FE0000F1A4448FEF7F8FC4348FFF7A1FEFFF72D
:102FF0007DFD13E0FEF7B2FC10E03E48FEF7ECFC6E
:103000003D48FFF795FEFFF771FDFEF7CFF805E0AD
:1030100085F843704021E81CFDF713F92878DFF8A4
:10302000DC80374C05282ED2DFE800F05F2D070347
:1030300007003148FEF7E0F825E069462D48FEF725
:103040000BFDDFF8C090DFED300A2B4899ED061A32
:1030500099ED080AF0EE411A40EE201ADDED000A63
:103060009FED2A0AFFF752FD99ED070AD8ED610A94
:10307000B0EEC00AB4EEE00AF1EE10FA03DD20680B
:1030800040F0805020601C48D8ED600A90ED020AA4
:10309000B4EEE00AF1EE10FA03DB206840F0804065
:1030A0002060D8ED5F0AB4EEE00AF1EE10FA03D822
:1030B000206840F000502060FEF72CFF20B1FEF7A2
:1030C00073FE216808432060206818B1FFF720FED6
:1030D0006E70AF7020686168884208BFBDE8F883F1
:1030E0002068FFF71DFA20686060BDE8F8830000E3
:1030F0003800002014040020E003002020010020FC
:10310000300000201C03002082A87B380000000053
:1031100010B490F85C30012B18BF022B06D0016E62
:1031200041F00201016610BC01207047D0F800C0D8
:10313000DCF8583011F0070F02D013F0010F23D044
:1031400011F0380F02D013F0020F1DD011F4E07F00
:1031500002D013F0040F17D011F4F05F02D013F077
:10316000080F11D011F4604F02D013F0100F0BD0E4
:1031700011F4403F02D013F0200F05D011F47C0F62
:1031800008D013F0400F05D1DCF85C4044F0010496
:10319000CCF85C4011F0070F18BF13F0010F22D0DC
:1031A0000368D3F85CC04CF0020CC3F85CC000BFED
:1031B00011F0800F06D00368D3F8DCC04CEA020C93
:1031C000C3F8DCC011F4807F06D00368D3F8E0C0F8
:1031D0004CEA0202C3F8E0200068426D11434165E9
:1031E00010BC0020704711F0380F18BF13F0020F09
:1031F000D6D111F4E07F18BF13F0040FD0D111F431
:10320000F05F18BF13F0080FCAD111F4604F18BF58
:1032100013F0100FC4D111F4403F18BF13F0200F6A
:10322000BED111F47C0F18BF13F0400FB8D1BFE727
:1032300070B490F85CC04B68BCF1020F06D0016E10
:1032400041F00801016670BC01207047D0F800C051
:10325000DCF8C44014F4001F06D0016E41F4007184
:10326000016670BC01207047DCF8C4C0002B8C687C
:103270000B69CCF3014C43EA04031DBF0C6844F016
:1032800080441C430C8808BF43EA8444D1E90653B8
:103290002B4391F820604D6945EA06652B43CD68C4
:1032A000466D1D430CEBCC0306EBC30343F8044B04
:1032B00043F8045BCC68104901EB144109780029FC
:1032C0001EBFC91C5FEA9101D21C0BD012F8034C3F
:1032D00052F8025C491E44EA052443F8044B02F10B
:1032E0000402F3D10268012101FA0CF1C2F8CC10FA
:1032F000816570BC002070472C5D000890F85C3040
:10330000012B18BF022B05D0016E41F002010166AE
:10331000012070470068012A826D0CBF22EA01017A
:103320001143816500207047006840290CBFD0F828
:103330009000D0F8980000F00F00704770B490F83B
:103340005CC0BCF1020F06D0016E41F008010166BD
:1033500070BC01207047D0F800C0402969D0DCF86B
:10336000984014F00F0F75D0DCF898C0CCF301240E
:10337000D0F84CC004EBC4050CEBC50CDCF80050D5
:1033800015F080455560DCF800500CBFC5F38A4548
:1033900025F060451560DCF8005005F0005595609B
:1033A0005CF8045B05F0004515613CF8045BADB2C8
:1033B000D5615CF8045C05F47025D5605CF8046C9C
:1033C00006F4801656615CF8046C06F400169661EB
:1033D0005CF8046CC6F3066616625CF8046CF60FC3
:1033E0005662204E06EB15452D78C5B15B1EACF13B
:1033F000010C15F0010F03D01CF8015F03F8015F09
:10340000D26806EB12421278520808D09CF801509C
:103410005D701CF8025F03F8025F521EF6D100686F
:1034200040290CBFC0F89440C0F89C40002070BCFC
:103430007047DCF8904014F00F0F0BD0DCF890C010
:10344000CCF30124D0F848C004EBC4050CEBC50C48
:1034500094E7FFE7016E41F48071016670BC0120C2
:10346000704700002C5D0008002804BF0120704751
:103470002DE9F0410446DFF8F88190F85C00002661
:1034800020B984F85D60204600F002F92068816967
:1034900021F01001816100F093FC054620688069ED
:1034A0004FF0030710F0080F0AD000BF00F088FCAF
:1034B000401B0A2817D82068806910F0080FF5D142
:1034C0002068816941F00101816100F079FC0546C5
:1034D0002068806910F0010F13D100BF00F070FC6C
:1034E000401B0A2808D9206E40F00100206684F8AD
:1034F0005C700120BDE8F0812068806910F0010F48
:10350000ECD02068816941F002018161206840456A
:1035100002D1584960680860207C012820688169D0
:103520000CBF21F0400141F040018161607C012825
:10353000206881690CBF41F4804121F480418161A0
:10354000A07C0128206881690CBF21F4805141F4DE
:103550008051816120688169A26821F44071114322
:1035600081612068816921F0A4018161206801697D
:1035700021F010010161E068012810D0C8B10228D3
:1035800012D02068816941F0800181612068016961
:1035900041F010010161E068032805D009E02068CE
:1035A000816941F0040103E02068816941F0200154
:1035B0008161207EE2694006A0F100716FF0FF009A
:1035C00000EB02221143226AA38A521E0A4301021F
:1035D00001EB03431A432368DA61A268B2F5407F26
:1035E00010D1E36AA26A00EB0320521E1043226B43
:1035F0000B1303EB02121043A28C01EB02410843B0
:103600002168C8602068D0F8C010E26B1143C0F890
:10361000C010194820642168D1F88020A38E22F4BC
:10362000F81242EA0342C1F880201449616421681B
:10363000D1F8802094F8383022F0706242EA0362B8
:10364000C1F880200E49A1640E49E1640E4921654C
:103650000E49616500F5547140F8046B8842FBD354
:10366000A6652666012084F85C000020BDE8F08194
:10367000006400400065004000A4004070A40040C9
:10368000B0A4004088A5004060A6004078A6004095
:1036900070B588B000242548029403940494816D89
:1036A00041F000718165816D01F000710691C16C7E
:1036B00041F00101C164C06C092600F001000690D0
:1036C0004FF4006002250596CDE900056946F00635
:1036D00000F0B0F9E8020090CDE90154CDE90446CC
:1036E0006946F006039400F0A5F911480068C0F39C
:1036F0000220C0F10701042988BF0421021D072A06
:1037000034BF0020C01E012202FA01F1491E01F05F
:10371000030101FA00F00749000181F800044FF0AD
:10372000E0215005C1F8000108B070BD0010024052
:103730000CED00E015E000E090F85C10012905D0E8
:10374000016E41F00401016601207047022180F8FA
:103750005C1001688A6922F001028A610021016619
:1037600008467047002808BF704730B4A0F1080130
:103770001E4B50F8042CD868024204BF30BC70477E
:10378000D1F800C0BCF1000F1CBF30BC704722EA6A
:10379000000048605A6810445860154802688A4220
:1037A00038BF1046FAD3D0F804C00CEB00048C42AA
:1037B00003D14968614441600146D1F804C00CEB73
:1037C0000104944218BF0A600AD11B689A4208BFDC
:1037D0000B6005D0526862444A60026812680A6051
:1037E000884218BF016030BC704700000001002013
:1037F000100100202DE9F00F534C84460020216871
:10380000054604F11003E9B950494FF4405211F054
:10381000070F06D0C91D4D4A21F007018A1AC2F5CB
:1038200040520A44083AC3E9001522F00702226018
:103830005560561A1560C1E90026A6604FF0004198
:103840006660E160E7681CEA070F1CBFBDE8F00F87
:103850007047BCF1000F04BFBDE8F00F70470CF1DA
:10386000080212F0070F04D002F00701C1F10801AD
:103870000A44002A04BFBDE8F00F70476668B242F0
:1038800099BFDFF8CCC01968BDE8F00F70474B68EE
:10389000934205D20B68002B1CBF8C461946F6D10B
:1038A000D4F80080414504BFBDE8F00F7047DCF854
:1038B00000000B68CCF800304B680830A3EB020C1A
:1038C000BCF1100F30D98B18C3F804C04A60204AED
:1038D000D2F800C09C4538BF6246F9D3D2F80490B4
:1038E00009EB020A9A4503D15B684B4453601346C7
:1038F000D3F8049009EB030AE24518BFC3F800C0EF
:103900000FD1C44508BFC3F800800AD0DCF804C05A
:10391000CC44C3F804C0D2F800C0DCF800C0C3F83F
:1039200000C09A4218BF13604B68F21A6260D4F864
:1039300008C0624588BF6246A26043EA0702C1E947
:103940000052BDE8F00F704700010020380400204D
:1039500010010020FEF73ABD00B587B000200290AC
:103960000390049005900A48C16C41F00201C164C3
:10397000C06C402100F00200069006488162009170
:1039800001210191694600F055F807B000BD000023
:10399000001002400004004810B5244C606800F09C
:1039A00009FA002808BF10BD00F00AFA6060FFF7AE
:1039B000F9F91F4940F2DC524FF6FF73072830D265
:1039C000DFE800F02F040B172F2D2D00208830B3D7
:1039D000642821D090421DD223E02088F8B16428C9
:1039E0001AD0C8281BD0B0F5967F15D0904211D2BE
:1039F00017E0208898B164280ED0C8280FD0B0F501
:103A0000967F09D0B0F5C87F09D0B0F5FA7F03D012
:103A1000904206D3238004E04020886201E04020E9
:103A200088612088401C208010BD00000800002014
:103A3000000400482DE9F0030A6892FAA2F3B3FAF1
:103A400083F3DA407DD001250F244FF0030C00BF33
:103A50000E6805FA03F2324074D04E68012E18BF8A
:103A6000022E1FD18F68D0F8088092FAA2F6B6FA1B
:103A700086F676000CFA06F628EA060692FAA2F80E
:103A8000B8FA88F84FEA480807FA08F73E43866014
:103A9000CF680E68D0F8048028EA06087E4348EA1A
:103AA000060646600E69D0F80C8092FAA2F7B7FAC3
:103AB00087F77F000CFA07F728EA070792FAA2F8BF
:103AC000B8FA88F84FEA480806FA08F63E43C66096
:103AD0004E68022E31D1B2F5807F16D24E69076A48
:103AE00092FAA2F8B8FA88F84FEA880804FA08F8B7
:103AF00027EA080792FAA2F8B8FA88F84FEA880885
:103B000006FA08F63E43066217E04F69D0F82480B3
:103B1000160A96FAA6F9B9FA89F94FEA890904FA58
:103B200009F996FAA6F6B6FA86F6B60028EA090862
:103B300007FA06F648EA060646624F68D0F80080A3
:103B400001E017E011E092FAA2F6B6FA86F67600E6
:103B50000CFA06F692FAA2F2B2FA82F2520028EABF
:103B6000060607FA02F2324302600A685B1CDA407A
:103B70007FF46EAFBDE8F0030020704703680122B8
:103B800013F0400F29D1D1E900231A43D1E9033CB6
:103B900043EA0C031A434B691A438B691A43CB69F6
:103BA0001A430B6A1A43036823F0BF0323F47F43CD
:103BB0001A43026042684B6922F4417222F4406267
:103BC00042EA13428B681A4342600A6AB2F5005F08
:103BD00002D1898C89B201610022C16921F400619E
:103BE000C16110467047000001490860704700003D
:103BF0001801002038B4214C4FF480500022A062FC
:103C00001F48ADF80020EC46016842F2107311F035
:103C1000020F08BF012107D102E0491C994203D8D5
:103C2000056815F0020FF8D016490A60016811F016
:103C3000800F18BF012106D0026812F0800F02D059
:103C4000491C9942F8D9016811F0010F08BF012100
:103C500007D102E0491C994203D8026812F0010F13
:103C6000F8D00948C068ACF800004FF48050A0615B
:103C7000BDF8000038BC8008704700000004004810
:103C8000083800400C38004000380040FEF79EBB6A
:103C9000FEF79CBB0748416C21F400414164064893
:103CA0006FF001020260016811F0010FFBD00260A9
:103CB00070470000002C0140102C01400D4940F2DB
:103CC000A4600860091F0860091F08600A486FF0B7
:103CD00001020260016811F0010FFBD00260074889
:103CE00040F21111026A11430162416C41F400413A
:103CF000416470473C2C0140102C0140002C0140D5
:103D00007047704770B4451E27BF4FF0E02C144C2D
:103D100070BC70474FF47A73DCF81820002000BFA5
:103D2000DCF818108A423EBFC1F5016606F524365C
:103D3000324488BF521A00D010440A46A4FB0061E6
:103D40004FEAD1118B4203D86D1EE3D270BC70478D
:103D50005B1A6FF05406714300EB4100E0E700008E
:103D6000C1C0C0C030B44FF0E02C0021DCF81830E6
:103D70000F4C00BFDCF8182093423EBFC2F501652E
:103D800005F524352B4488BF9B1A00D019441346EF
:103D9000A4FB01524FEAD21290429CBF30BC704744
:103DA000801A6FF054056A4301EB4201E2E700001C
:103DB000C1C0C0C001490968081A7047040000204A
:103DC0000148006870470000040000204FF0E02127
:103DD0001048486110480068C0F30220C0F1070293
:103DE000042A88BF0422031D072B34BF0020C01EF5
:103DF000012303FA02F2521E02F0020202FA00F05C
:103E0000064B0022000183F8140D8A610720086127
:103E1000704700000F9802000CED00E00FE000E09A
:103E200002480168491C016070470000040000203E
:103E3000354810B5016821F00F0141F0040101601F
:103E4000016801F00F010429FAD1304850F8801FB1
:103E500021F4807101602E4C206840F48030206095
:103E60002068C0F340400028FAD0E16845F2535082
:103E7000284A11400843E060E06840F08070E0604C
:103E8000206840F0807020602068C0F34060002807
:103E9000FAD0A06840F00300A060A06820F0F00015
:103EA00040F08000A060A06800F00C000C28FAD15F
:103EB0001948016841F0807101601848016841F0BB
:103EC000010101600021416041686429FCD3A068C0
:103ED00020F0F000A060A06820F4E060A060A0687E
:103EE00020F46050A0600E48FFF77EFE0D48016888
:103EF00021F440410160D4F8880020F0407040F087
:103F00000070C4F8880010BD00200240007000401E
:103F1000001002400C80FFF9FCED00E0001000E012
:103F200080FE210A881002400448016841F47001B3
:103F3000016003494FF000600860704788ED00E0C1
:103F400008ED00E034499FED331AB5EEC00AD1ED1B
:103F5000000AD1ED021A3148F1EE10FA38BFC0ED77
:103F6000000A16D391ED062AF6EE002AB4EEC20A34
:103F7000F1EE10FA10D291ED031A41EE800A21EE13
:103F8000222A60EE002A41EE001A42EE220AC0ED1B
:103F9000000AC0ED011A2DE0D1ED070A72EE200AE9
:103FA000F4EEC00AF1EE10FA0ADD70EE421AD1ED1D
:103FB000090A91ED040A40EE210AC0ED000A17E05B
:103FC000D0ED031A144AF4EEC01AD2ED010AF1EE54
:103FD00010FA12DD30EE610A91ED051A61EE221A37
:103FE00020EE002A21EE000A41EE820AC0ED000A0E
:103FF00080ED010A80ED021A7047F4EEC01AF1EE6E
:1040000010FA88BF7047C0ED000A80ED011A80EDFC
:10401000021A7047000000009800002020040020D1
:1040200010B52DED0A8BF0EE62CAF0EE418AF0EE8B
:1040300000BAB0EE609A28EEA8BA6CEEAB0AF0EEC9
:1040400040AA84B0B0EE42AA8BEE200AB0EE61CA5C
:104050007AEEC99A10EE100AFCF737F9CDE90201A1
:1040600018EE900AFCF731F9CDE9000103990198A7
:1040700061F31E0003909DED020B51EC100BFCF759
:1040800037F900EE100A39EEC00A10EE100A0028C7
:10409000B4BFBFEE008AB7EE008A28EE0A0A644C6D
:1040A00028EE281A68EE6C0A84ED030A28EE0C0A42
:1040B000C4ED050A84ED040A68EE001AB4EEE11AB4
:1040C000F1EE10FAC4BF28EE4A1A84ED031A30EE5E
:1040D000682A94ED031AF1EE402AB6EE00AAC2EE69
:1040E000011A82EEA02A70EE282AC4ED061A61EEAB
:1040F0008A1A61EEA21A84ED082A22EE0A2A42EEFA
:10410000001A28EE292A68EE212AB4EEE22AF1EEFE
:1041100010FA61D221EE2B0A6BEE201A20EE200A53
:1041200070EEC10A40EE291A81EEA00A10EE100AC4
:10413000FCF7CBF841EC100B9FED3FBBB0EE4B1AF8
:10414000F0EE6B1A00F010FA51EC100BFCF7D0F8FF
:1041500000EE900AB1EEE00AB4EE400AF1EE10FA79
:104160001CBFB0EE600A00F0ABFA20EE088A84EDC6
:10417000048A78EE680A94ED031A80EE810A10EE44
:10418000100AFCF7A2F841EC110BB0EE4B0AF0EE6E
:104190006B0A00F0E9F951EC100BFCF7A9F8A061EB
:1041A00094ED051AF1EE480A80EE810A10EE100A2D
:1041B000FCF78BF841EC110BB0EE4B0AF0EE6B0AFA
:1041C00000F0D2F951EC100BFCF792F89FED1C0AAD
:1041D000206284ED070A05E079EEE10A80EE801A9C
:1041E00084ED071A94ED060AD4ED070A94ED081A37
:1041F000144870EE200A70EE810AC0ED030A84EDC7
:10420000009AC4ED01AAC4ED028AD4ED030A08EEB7
:10421000809A20EE000A60EE8A0A00EE809A84ED11
:10422000099A04B0BDEC0A8B10BD0000000000002C
:1042300098000020000000000000000000000000C6
:1042400000000000200400200548006810F0200F46
:1042500008BF70470348406AC0B2FEF7A9BD00001E
:104260001C4400400044004070B50F4C00252068FD
:1042700020B942F20800FFF7BDFA206042F20802BE
:104280000A49FBF7C5FF002242F20401206800F052
:1042900061FF216801F500514968814218BF4FF064
:1042A000FF35284670BD00000000002000B801085E
:1042B00010B500244FF4CC7209490A48FBF7A8FF57
:1042C00000224FF4CA71074800F044FF0549D1F8B5
:1042D0009411814218BF4FF0FF34204610BD0000FA
:1042E00000E00108200100202DE9F0411A4C20686F
:1042F000002804BF4FF0FF30BDE8F081EFF31087D6
:1043000072B6FEF7DBFB05213720FEF707FB050041
:104310001AD1002242F20401206800F01BFF266837
:1043200042F20401DFF834808851002406EBC40017
:10433000D0E9002308EBC400FEF7A2FB050003D17F
:10434000641CB4F5806FF1D9FEF78AFB87F31088FF
:104350002846BDE8F08100000000002000B80108F8
:104360002DE9F041EFF3108772B6FEF7A7FB0121AC
:104370003C20FEF7D3FA050019D100224FF4CA7190
:104380000E4800F0E7FE0D49DFF834800E460024A9
:10439000C1F8940106EBC400D0E9002308EBC40087
:1043A000FEF76EFB050002D1641C332CF2D3FEF73E
:1043B00057FB87F310882846BDE8F08120010020D4
:1043C00000E0010810B50E4C206820B942F2080048
:1043D000FFF710FA206000219FED0A0A22680846C4
:1043E00002EB8103491C83ED000A02EB8103801C70
:1043F000491C83ED000AB0F5006FF1DB10BD000031
:104400000000002000000000364807219FED360A1A
:10441000016080ED010A9FED350A002180ED020A5E
:104420009FED330A042280ED030A9FED320ADFED8F
:10443000360A80ED040A4161B2EE040AC0F81C118C
:1044400080ED480AB0EE000A80ED490A9FED2A0A85
:10445000C0F8281180ED4B0A9FED280A80ED4C0A28
:10446000C0F834210222C0F8382180ED4F0A9FEDB8
:10447000240A0A2280ED500AC0F8442180ED520A35
:104480009FED200A4FF47A7280ED530A80ED540AB2
:10449000C0F85411C0ED560ADFED1C0AC0ED570AF2
:1044A000DFED1B0AC0ED580ADFED1A0AC0ED590A0C
:1044B000DFED190AC0ED5A0AF3EE040AC0ED5B0AFB
:1044C000F2EE080AC0F87821C0ED5F0ADFED130AAA
:1044D0000122C0ED600A80ED610AC0E96221C0F8E6
:1044E000901170472001002063F0303D8BE1EA36E7
:1044F0006F12833A8FC2753D6F12033B0AD7233C7C
:10450000000048420000C84217B7D138000082437B
:104510009A99193E0AD7A33C0000B44200003442E5
:10452000FDF754BF004870471C0100200000000048
:1045300030B583B0044600F0E1F89FED090B054665
:104540008DED000B002221466846FBF718FF284638
:1045500000F0EAF89DED000B03B030BD0000000054
:10456000000000000000000000B52DED048BB0EE4F
:10457000418AF0EE618AB0EE409AF0EE609A83B024
:1045800053EC182B51EC190BFCF7B6F800F0704007
:10459000B0F1005F1AD018EE101A18EE900A8DEDE7
:1045A000008B002918BF0121084320F00040C0F112
:1045B0007F6000F1E040C00F01BFB0EE480AF0EEAE
:1045C000680A03B0BDEC048B08BF00BDB0EE490A19
:1045D00003B0F0EE690ABDEC048B00BD00000000E2
:1045E00010B52DED020B2DED088B84B09DED0C0B5D
:1045F00051EC100BFCF70CF841EC180B9DED0C0B7B
:1046000053EC182B51EC100BFBF7FCFF41EC190B92
:104610000D989FED290B10F0004F53EC102B51EC2F
:10462000190B9FED21AB9FED22BB0ED0FCF734F8A8
:104630000ED953EC1B2B51EC190BFCF745F81CD28F
:1046400014E000BF41EC180B17E0FCF725F806D288
:1046500053EC1A2B51EC180BFBF7D4FFF2E753EC99
:104660001B2B51EC190BFCF72FF806D853EC1A2B27
:1046700051EC180BFBF725FFE4E78DED028B9DED68
:104680000C0B18EE901A10EE900A8DED000B61F3F2
:104690001E0003909DED020B04B0BDEC088B02B030
:1046A00010BD000000000000000000000000F03F0E
:1046B000000000000000E03F000000000000E0BF3C
:1046C00010B52DED028BB1EEC08A18EE100A20F065
:1046D0000040C0F1FF40C00F0AD010EE100A20F0D9
:1046E0000040C0F1FF40C00F04BF012000F01CF8E3
:1046F000B0EE480ABDEC028B10BD00000148006816
:10470000704700001C01002002E008C8121F08C109
:10471000002AFAD170477047002001E001C1121F42
:10472000002AFBD170470000014908607047000073
:104730001C01002030380A2801D2012070470020D7
:104740007047000000B5B7EE002A2DED048BB0EEE7
:10475000619A83B0DFED341A60EE211A82EE210AED
:1047600060EE208A20EE018A68EEA80A48EE080A68
:10477000B1EEE00AB4EE400AF1EE10FA1CBFB0EE62
:10478000600AFFF79DFF9FED291AC1EE000A10EEA7
:10479000900AB0F17E5FBCBF68EEA08A28EE208A46
:1047A000F0EE499AB0EE690A00F086FDB0EE401ACC
:1047B000B0EE690AB0EE419A00F0C0FD68EE891AC9
:1047C00068EE800A02AA01A948EE401A48EE090ADA
:1047D0006846B0EE610A01F09BF9DDED000A9FED3D
:1047E000140A144960EE800AFCEEE00A10EE900A0A
:1047F00080B20860DDED010A091F60EE800AFCEE60
:10480000E00A10EE900A80B20860DDED020A091F8E
:1048100020EE800ABCEEC00A10EE100A80B20860DA
:1048200003B0BDEC048B00BDABAA2A3FAC5C313FAA
:10483000008054453C2C014000B589B0134600224D
:104840004FF0004CCDE904C2009008920792180482
:10485000CDE90220019206920A4669460248FEF717
:10486000E7FC09B000BD0000B802002091F800C0CC
:104870006CF3070391F801C06CF30F2391F802C0A9
:104880006CF3174391F803C06CF31F63262B28BF0A
:104890007047DFE803F0FE132E49647F9AB5D0FD20
:1048A000FCFBFAF9F8F7F6F5F4F3F2F1F0EFEEEDC0
:1048B000ECEBEAE9E8E7E6E5E4E3E2E16AB10B798B
:1048C00063F307024B7963F30F228B7963F317428B
:1048D000CB7963F31F62FE4B1A60FD4A12680A71BE
:1048E000130A4B71130C8B71120ECA710822FFF759
:1048F000A3BF6AB10B7963F307024B7963F30F220D
:104900008B7963F31742CB7963F31F62F04B5A60E4
:10491000EF4A52680A71130A4B71130C8B71120E15
:10492000CA710822FFF788BF6AB10B7963F30702E7
:104930004B7963F30F228B7963F31742CB7963F3DF
:104940001F62E34B9A60E24A92680A71130A4B7144
:10495000130C8B71120ECA710822FFF76DBF6AB17A
:104960000B7963F307024B7963F30F228B7963F3BF
:104970001742CB7963F31F62D54BDA60D44AD26811
:104980000A71130A4B71130C8B71120ECA71082233
:10499000FFF752BF6AB10B7963F307024B7963F3F8
:1049A0000F228B7963F31742CB7963F31F62C84BF5
:1049B0001A61C74A12690A71130A4B71130C8B7181
:1049C000120ECA710822FFF737BF6AB10B7963F381
:1049D00007024B7963F30F228B7963F31742CB798C
:1049E00063F31F62BA4B5A61B94A52690A71130ADA
:1049F0004B71130C8B71120ECA710822FFF71CBF8A
:104A00006AB10B7963F307024B7963F30F228B7959
:104A100063F31742CB7963F31F62AD4B9A61AC4AE3
:104A200092690A71130A4B71130C8B71120ECA71C1
:104A30000822FFF701BF72B10B7963F307024B79CC
:104A400063F30F228B7963F31742CB7963F31F6211
:104A50009F4BC3F81C211DE05BE33AE31CE3FEE23D
:104A6000E0E2C2E2A4E286E268E24AE22CE20EE27E
:104A7000F0E1D2E1B4E196E178E15AE13CE11BE1F9
:104A8000FDE0DFE0C1E0A3E085E067E049E02BE086
:104A90000DE05BE38E4AD2F81C210A71130A4B71B8
:104AA000130C8B71120ECA710822FFF7C5BE72B1CA
:104AB0000B7963F307024B7963F30F228B7963F36E
:104AC0001742CB7963F31F62814BC3F82021804AE0
:104AD000D2F820210A71130A4B71130C8B71120E3C
:104AE000CA710822FFF7A8BE72B10B7963F30702FF
:104AF0004B7963F30F228B7963F31742CB7963F31E
:104B00001F62734BC3F82421714AD2F824210A7121
:104B1000130A4B71130C8B71120ECA710822FFF726
:104B20008BBE72B10B7963F307024B7963F30F22EB
:104B30008B7963F31742CB7963F31F62644BC3F83D
:104B40002821634AD2F828210A71130A4B71130CE9
:104B50008B71120ECA710822FFF76EBE72B10B790B
:104B600063F307024B7963F30F228B7963F31742E8
:104B7000CB7963F31F62564BC3F82C21544AD2F809
:104B80002C210A71130A4B71130C8B71120ECA710E
:104B90000822FFF751BE72B10B7963F307024B791C
:104BA00063F30F228B7963F31742CB7963F31F62B0
:104BB000474BC3F83021464AD2F830210A71130A14
:104BC0004B71130C8B71120ECA710822FFF734BEA1
:104BD00072B10B7963F307024B7963F30F228B7980
:104BE00063F31742CB7963F31F62394BC3F8342167
:104BF000374AD2F834210A71130A4B71130C8B71A6
:104C0000120ECA710822FFF717BE72B10B7963F357
:104C100007024B7963F30F228B7963F31742CB7949
:104C200063F31F622A4BC3F83821294AD2F838218E
:104C30000A71130A4B71130C8B71120ECA71082280
:104C4000FFF7FABD72B10B7963F307024B7963F397
:104C50000F228B7963F31742CB7963F31F621C4BEE
:104C6000C3F83C211A4AD2F83C210A71130A4B714D
:104C7000130C8B71120ECA710822FFF7DDBD72B1E1
:104C80000B7963F307024B7963F30F228B7963F39C
:104C90001742CB7963F31F620D4BC3F840210C4AD6
:104CA000D2F840210A71130A4B71130C8B71120E4A
:104CB000CA710822FFF7C0BD8AB10B7963F30702FE
:104CC0004B7963F30F228B7963F31742CB7901E0C1
:104CD0002001002063F31F62FE4BC3F84421FD4A0C
:104CE000D2F844210A71130A4B71130C8B71120E06
:104CF000CA710822FFF7A0BD72B10B7963F30702F6
:104D00004B7963F30F228B7963F31742CB7963F30B
:104D10001F62F04BC3F84821EE4AD2F848210A71CD
:104D2000130A4B71130C8B71120ECA710822FFF714
:104D300083BD72B10B7963F307024B7963F30F22E2
:104D40008B7963F31742CB7963F31F62E14BC3F8AE
:104D50004C21E04AD2F84C210A71130A4B71130C12
:104D60008B71120ECA710822FFF766BD72B10B7902
:104D700063F307024B7963F30F228B7963F31742D6
:104D8000CB7963F31F62D34BC3F85021D14AD2F8D9
:104D900050210A71130A4B71130C8B71120ECA71D8
:104DA0000822FFF749BD72B10B7963F307024B7913
:104DB00063F30F228B7963F31742CB7963F31F629E
:104DC000C44BC3F85421C34AD2F854210A71130AC0
:104DD0004B71130C8B71120ECA710822FFF72CBD98
:104DE00072B10B7963F307024B7963F30F228B796E
:104DF00063F31742CB7963F31F62B64BC3F85821B4
:104E0000B44AD2F858210A71130A4B71130C8B71F2
:104E1000120ECA710822FFF70FBD72B10B7963F34E
:104E200007024B7963F30F228B7963F31742CB7937
:104E300063F31F62A74BC3F85C21A64AD2F85C213A
:104E40000A71130A4B71130C8B71120ECA7108226E
:104E5000FFF7F2BC72B10B7963F307024B7963F38E
:104E60000F228B7963F31742CB7963F31F62994B5F
:104E7000C3F86021974AD2F860210A71130A4B7176
:104E8000130C8B71120ECA710822FFF7D5BC72B1D8
:104E90000B7963F307024B7963F30F228B7963F38A
:104EA0001742CB7963F31F628A4BC3F86421894AA6
:104EB000D2F864210A71130A4B71130C8B71120E14
:104EC000CA710822FFF7B8BC72B10B7963F307020D
:104ED0004B7963F30F228B7963F31742CB7963F33A
:104EE0001F627C4BC3F868217A4AD2F868210A71A4
:104EF000130A4B71130C8B71120ECA710822FFF743
:104F00009BBC72B10B7963F307024B7963F30F22F9
:104F10008B7963F31742CB7963F31F626D4BC3F850
:104F20006C216C4AD2F86C210A71130A4B71130C74
:104F30008B71120ECA710822FFF77EBC72B10B7919
:104F400063F307024B7963F30F228B7963F3174204
:104F5000CB7963F31F625F4BC3F870215D4AD2F8CF
:104F600070210A71130A4B71130C8B71120ECA71E6
:104F70000822FFF761BC72B10B7963F307024B792A
:104F800063F30F228B7963F31742CB7963F31F62CC
:104F9000504BC3F874214F4AD2F874210A71130A96
:104FA0004B71130C8B71120ECA710822FFF744BCAF
:104FB00072B10B7963F307024B7963F30F228B799C
:104FC00063F31742CB7963F31F62424BC3F8782136
:104FD000404AD2F878210A71130A4B71130C8B7175
:104FE000120ECA710822FFF727BC72B10B7963F366
:104FF00007024B7963F30F228B7963F31742CB7966
:1050000063F31F62334BC3F87C21324AD2F87C2110
:105010000A71130A4B71130C8B71120ECA7108229C
:10502000FFF70ABC72B10B7963F307024B7963F3A4
:105030000F228B7963F31742CB7963F31F62254B01
:10504000C3F88021234AD2F880210A71130A4B71D8
:10505000130C8B71120ECA710822FFF7EDBB72B1EF
:105060000B7963F307024B7963F30F228B7963F3B8
:105070001742CB7963F31F62164BC3F88421154A9C
:10508000D2F884210A71130A4B71130C8B71120E22
:10509000CA710822FFF7D0BB72B10B7963F3070224
:1050A0004B7963F30F228B7963F31742CB7963F368
:1050B0001F62084BC3F88821064AD2F888210A717A
:1050C000130A4B71130C8B71120ECA710822FFF771
:1050D000B3BB01E02001002072B10B7963F307023A
:1050E0004B7963F30F228B7963F31742CB7963F328
:1050F0001F62174BC3F88C21154AD2F88C210A7114
:10510000130A4B71130C8B71120ECA710822FFF730
:1051100093BB72B10B7963F307024B7963F30F22F0
:105120008B7963F31742CB7963F31F62084BC3F8A3
:105130009021074AD2F890210A71130A4B71130C7F
:105140008B71120ECA710822FFF776BB7047000000
:105150002001002010B4B1F1000C184BA1F10101A5
:10516000D8BF4FF0000C0CDD4FF0010C3CEA010CF5
:1051700007D010F8014B84EA126453F8244084EA03
:105180000222A1EB0C01B1F1FF3F13DD10F801CBBE
:10519000891E8CEA126CB1F1FF3F53F82CC08CEAE7
:1051A000022210F801CB8CEA126C53F82CC08CEA66
:1051B0000222EBDC10BC1046704700003C5D00088A
:1051C0001448016911F4803F1CBF0121124A0AD022
:1051D00005E0491C914202D94FF0FF307047036946
:1051E00013F4803FF5D101694CF2FA32114009D035
:1051F00000220AB182698261002918BF01616FF043
:1052000001007047016911F0010F1CBF012101610C
:10521000002070470020024040420F00224882B028
:10522000016E41F001010166016E01F00101009182
:10523000816D41F080518165806D00F0805000905B
:105240001A4801684FF6FF02114041F4407141F0E5
:10525000FD7141F080610160FEF7EAFDFEF7B6FDE9
:10526000FEF77AFBFDF7D4F8FCF762FFFCF7B4FD1C
:1052700000B1FEE7FFF71CF8002818BFFFF7C4F8DD
:10528000FEF7F2FF60B1FFF79DF81B20FDF790FDE0
:10529000FEF782FBFDF728FB0548FBF773FEF7E7F7
:1052A000044901200870F0E7001002400CED00E016
:1052B00014040020F40000209FED1D1AF5EE000AF2
:1052C00040EE010ABDEEE00AF5EEC00A10EE100A4B
:1052D000F1EE10FA38BF401E00EE100AB8EEC00A18
:1052E00030EEC00ADFED130A20EE200ABCEEC01A31
:1052F00011EE100A80B2B0F5007F24BF002030EE1E
:10530000600A00EE900A0C49F7EE001AF8EE600A07
:1053100001EB800090ED011A70EE600A90ED000A3A
:1053200071EEE01A21EE800A00EE810A704700005B
:1053300083F9223E00000044C4610008DFED1C0A2E
:10534000B5EEC00A60EE200ABDEEE01A11EE100ABA
:10535000F1EE10FA38BF401E00EE100AB8EEC00A97
:1053600030EEC00ADFED130A20EE200ABCEEC01AB0
:1053700011EE100A80B2B0F5007F24BF002030EE9D
:10538000600A00EE900A0C49F7EE001AF8EE600A87
:1053900001EB800090ED011A70EE600A90ED000ABA
:1053A00071EEE01A21EE800A00EE810A70470000DB
:1053B00083F9223E00000044C461000870B5D64D58
:1053C0000D22D1A1E81CFAF747FFD44C002800F0C9
:1053D000F5801322D2A1E81CFAF73EFF002800F066
:1053E000F3801322D3A1E81CFAF736FF002800F05F
:1053F000F5800A22D4A1E81CFAF72EFF002800F05D
:10540000F7801222D3A1E81CFAF726FF002800F04B
:10541000F9801022D4A1E81CFAF71EFF002800F042
:10542000FB801422D5A1E81CFAF716FF002800F033
:10543000FF801522D7A1E81CFAF70EFF002800F024
:1054400003811C22D9A1E81CFAF706FF002800F00E
:1054500003811C22DDA1E81CFAF7FEFE002800F003
:1054600009810D22E1A1E81CFAF7F6FE002800F000
:105470000F810F22E1A1E81CFAF7EEFE002800F0F0
:105480000F811322E1A1E81CFAF7E6FE002800F0E4
:105490000F811022E2A1E81CFAF7DEFE002800F0DE
:1054A00013811D22E3A1E81CFAF7D6FE002800F0C4
:1054B00017810B22E7A1E81CFAF7CEFE002800F0C6
:1054C00017810D22E6A1E81CFAF7C6FE002800F0BD
:1054D0006F820D22E6A1E81CFAF7BEFE002800F05C
:1054E00073821922E6A1E81CFAF7B6FE002800F044
:1054F00077821822E9A1E81CFAF7AEFE002800F036
:1055000077820B22ECA1E81CFAF7A6FE002800F037
:105510007B820B22EBA1E81CFAF79EFE002800F02C
:105520007F821622EAA1E81CFAF796FE002800F016
:1055300083820C22ECA1E81CFAF78EFE002800F012
:1055400087821022ECA1E81CFAF786FE002800F002
:105550008B821922EDA1E81CFAF77EFE002800F0EC
:105560008F821822F0A1E81CFAF776FE002800F0DE
:105570008F821722F3A1E81CFAF76EFE002800F0D4
:1055800093821522F5A1E81CFAF766FE00286ED07A
:105590000922F8A1E81CFAF75FFE002868D0112262
:1055A000F7A1E81CFAF758FE00286ED01922F9A1DD
:1055B000E81CFAF751FE002868D09FE205F11000C0
:1055C000FAF757FE206099E205F11600FEF7B0FFEA
:1055D00051EC100BFAF78CFE60608FE205F11600BB
:1055E000FEF7A6FF51EC100BFAF782FEA06085E2F1
:1055F00005F10D00FEF79CFF51EC100BFAF778FE59
:10560000E0607BE205F11500FEF792FF51EC100B14
:10561000FAF76EFE206171E205F11300FEF788FFD4
:1056200051EC100BFAF764FEC4F8200166E200BFEB
:1056300005F11700FEF77CFF51EC100BFAF758FE4E
:10564000C4F824015AE200BF05F11800FAF711FE70
:10565000C4F8280152E200BF05F11F00FEF768FF01
:1056600051EC100BFAF744FEC4F82C0146E226E296
:1056700030E200BF05F11F00FEF75AFF51EC100B9E
:10568000FAF736FEC4F8300138E22AE230E200BF11
:1056900005F11000FAF7EDFDC4F834012EE200BF69
:1056A00005F11200FAF7E5FDC4F8380126E200BF63
:1056B00005F11600FEF73CFF51EC100BFAF718FE4F
:1056C000C4F83C011AE200BF05F11300FEF730FFF9
:1056D00051EC100BFAF70CFEC4F840010EE200BFCB
:1056E00005F12000FAF7C5FDC4F8440106E200BF49
:1056F00005F10E00FAF7BDFD00EE100AB8EEC00A83
:1057000084ED520AFAE10000706F6C655F706169A8
:105710007273203D2000000038000020200100208E
:1057200070686173655F726573697374616E6365D8
:10573000203D200070686173655F696E64756374F5
:10574000616E6365203D2000696E65727469612039
:105750003D200000746F727175655F636F6E7374C6
:10576000616E74203D20000063616C69625F637547
:105770007272656E74203D200000000063616C69E8
:10578000625F6D61785F766F6C74616765203D2044
:1057900000000000616E7469636F6767696E675F20
:1057A000656E61626C65203D20000000616E746969
:1057B000636F6767696E675F706F735F7468726548
:1057C00073686F6C64203D2000000000616E746996
:1057D000636F6767696E675F76656C5F7468726533
:1057E00073686F6C64203D2000000000696E707566
:1057F000745F6D6F6465203D20000000636F6E7400
:10580000726F6C5F6D6F6465203D2000746F727104
:1058100075655F72616D705F72617465203D200017
:1058200076656C5F72616D705F72617465203D209A
:1058300000000000696E7075745F706F735F666959
:105840006C7465725F62616E647769647468203D30
:10585000200000007472616A5F76656C203D200054
:105860007472616A5F616363656C203D20000000B3
:105870007472616A5F646563656C203D200000009E
:105880006761696E5F7363686564756C696E675F95
:10589000656E61626C65203D200000006761696E85
:1058A0005F7363686564756C696E675F776964745C
:1058B00068203D2000000000706F735F6761696EB3
:1058C000203D200076656C5F6761696E203D200099
:1058D00076656C5F696E7465677261746F725F671D
:1058E00061696E203D20000076656C5F6C696D69B2
:1058F00074203D200000000063757272656E745F55
:105900006C696D6974203D2000000000637572723F
:10591000656E745F6374726C5F62616E64776964F4
:105920007468203D2000000070726F746563745FBE
:10593000756E6465725F766F6C74616765203D207B
:105940000000000070726F746563745F6F7665723B
:105950005F766F6C74616765203D200070726F74B4
:105960006563745F6F7665725F7370656564203D13
:105970002000000063616E5F6964203D200000002C
:1059800063616E5F74696D656F75745F6D73203DE3
:105990002000000063616E5F73796E635F746172F3
:1059A0006765745F656E61626C65203D2000000074
:1059B00005F11000FAF75DFC00EE100AB8EEC00A1F
:1059C00084ED530A9AE000BF05F11000FAF751FC8C
:1059D00000EE100AB8EEC00A84ED540A8EE000BF53
:1059E00005F11C00FAF745FCC4F8540186E000BF3D
:1059F00005F11B00FEF79CFD51EC100BFAF778FC4B
:105A0000C4F858017AE000BF05F10E00FEF790FDE2
:105A100051EC100BFAF76CFCC4F85C016EE000BFAF
:105A200005F10E00FEF784FD51EC100BFAF760FC57
:105A3000C4F8600162E000BF05F11900FEF778FDCF
:105A400051EC100BFAF754FCC4F8640156E000BFA7
:105A500005F10F00FEF76CFD51EC100BFAF748FC56
:105A6000C4F868014AE000BF05F11300FEF760FDCD
:105A700051EC100BFAF73CFCC4F86C013EE000BF9F
:105A800005F11C00FAF7F5FBC4F8780136E000BF19
:105A900005F11B00FEF74CFD51EC100BFAF728FC4A
:105AA000C4F87C012AE000BF05F11A00FEF740FDB2
:105AB00051EC100BFAF71CFCC4F880011EE005F154
:105AC0001800FEF735FD51EC100BFAF711FCC4F885
:105AD000840113E005F10C00FAF7CBFBC4F8880150
